{
  "_format": "hh-sol-artifact-1",
  "contractName": "ProjectTask",
  "sourceName": "contracts/ProjectTask.sol",
  "abi": [
    {
      "inputs": [
        {
          "internalType": "string",
          "name": "_short_title",
          "type": "string"
        },
        {
          "internalType": "string",
          "name": "_task_description_link",
          "type": "string"
        }
      ],
      "stateMutability": "payable",
      "type": "constructor"
    },
    {
      "inputs": [],
      "name": "AssignedTaskCannotBeRejected",
      "type": "error"
    },
    {
      "inputs": [],
      "name": "EmployerCannotBePerformer",
      "type": "error"
    },
    {
      "inputs": [],
      "name": "OnlyEmployerCanDoThis",
      "type": "error"
    },
    {
      "inputs": [],
      "name": "OnlyPerformerCanDoThis",
      "type": "error"
    },
    {
      "inputs": [],
      "name": "PerformerAlreadyWish",
      "type": "error"
    },
    {
      "inputs": [],
      "name": "PerformerIsNotWishingDoThis",
      "type": "error"
    },
    {
      "inputs": [],
      "name": "TaskIsNotInProgress",
      "type": "error"
    },
    {
      "inputs": [
        {
          "internalType": "enum Status",
          "name": "status",
          "type": "uint8"
        }
      ],
      "name": "TaskIsNotOnReview",
      "type": "error"
    },
    {
      "inputs": [],
      "name": "TaskIsStillInProgress",
      "type": "error"
    },
    {
      "inputs": [],
      "name": "TaskNotPendingPerformer",
      "type": "error"
    },
    {
      "anonymous": false,
      "inputs": [
        {
          "indexed": false,
          "internalType": "address",
          "name": "recipient",
          "type": "address"
        },
        {
          "indexed": false,
          "internalType": "string",
          "name": "message",
          "type": "string"
        },
        {
          "indexed": false,
          "internalType": "string",
          "name": "additionalLink",
          "type": "string"
        }
      ],
      "name": "RequestForChanges",
      "type": "event"
    },
    {
      "inputs": [
        {
          "internalType": "address",
          "name": "performer",
          "type": "address"
        }
      ],
      "name": "assignPerformer",
      "outputs": [],
      "stateMutability": "nonpayable",
      "type": "function"
    },
    {
      "inputs": [],
      "name": "assignRequest",
      "outputs": [],
      "stateMutability": "nonpayable",
      "type": "function"
    },
    {
      "inputs": [],
      "name": "completeTask",
      "outputs": [],
      "stateMutability": "nonpayable",
      "type": "function"
    },
    {
      "inputs": [],
      "name": "employer",
      "outputs": [
        {
          "internalType": "address payable",
          "name": "",
          "type": "address"
        }
      ],
      "stateMutability": "view",
      "type": "function"
    },
    {
      "inputs": [],
      "name": "rejectTask",
      "outputs": [],
      "stateMutability": "nonpayable",
      "type": "function"
    },
    {
      "inputs": [
        {
          "internalType": "string",
          "name": "message",
          "type": "string"
        },
        {
          "internalType": "string",
          "name": "additional_link",
          "type": "string"
        }
      ],
      "name": "requestChanges",
      "outputs": [],
      "stateMutability": "nonpayable",
      "type": "function"
    },
    {
      "inputs": [],
      "name": "selected_performer",
      "outputs": [
        {
          "internalType": "address payable",
          "name": "",
          "type": "address"
        }
      ],
      "stateMutability": "view",
      "type": "function"
    },
    {
      "inputs": [],
      "name": "sendTaskToReview",
      "outputs": [],
      "stateMutability": "nonpayable",
      "type": "function"
    },
    {
      "inputs": [],
      "name": "short_title",
      "outputs": [
        {
          "internalType": "string",
          "name": "",
          "type": "string"
        }
      ],
      "stateMutability": "view",
      "type": "function"
    },
    {
      "inputs": [],
      "name": "status",
      "outputs": [
        {
          "internalType": "enum Status",
          "name": "",
          "type": "uint8"
        }
      ],
      "stateMutability": "view",
      "type": "function"
    },
    {
      "inputs": [],
      "name": "task_cost",
      "outputs": [
        {
          "internalType": "uint256",
          "name": "",
          "type": "uint256"
        }
      ],
      "stateMutability": "view",
      "type": "function"
    },
    {
      "inputs": [],
      "name": "task_description_link",
      "outputs": [
        {
          "internalType": "string",
          "name": "",
          "type": "string"
        }
      ],
      "stateMutability": "view",
      "type": "function"
    },
    {
      "inputs": [
        {
          "internalType": "address",
          "name": "",
          "type": "address"
        }
      ],
      "name": "wishing_performers",
      "outputs": [
        {
          "internalType": "bool",
          "name": "",
          "type": "bool"
        }
      ],
      "stateMutability": "view",
      "type": "function"
    }
  ],
  "bytecode": "0x60806040526000600460006101000a81548160ff021916908360068111156200002d576200002c620000ca565b5b0217905550604051620019973803806200199783398181016040528101906200005791906200028c565b336000806101000a81548173ffffffffffffffffffffffffffffffffffffffff021916908373ffffffffffffffffffffffffffffffffffffffff1602179055508060029081620000a891906200055c565b508160039081620000ba91906200055c565b5034600181905550505062000643565b7f4e487b7100000000000000000000000000000000000000000000000000000000600052602160045260246000fd5b6000604051905090565b600080fd5b600080fd5b600080fd5b600080fd5b6000601f19601f8301169050919050565b7f4e487b7100000000000000000000000000000000000000000000000000000000600052604160045260246000fd5b620001628262000117565b810181811067ffffffffffffffff8211171562000184576200018362000128565b5b80604052505050565b600062000199620000f9565b9050620001a7828262000157565b919050565b600067ffffffffffffffff821115620001ca57620001c962000128565b5b620001d58262000117565b9050602081019050919050565b60005b8381101562000202578082015181840152602081019050620001e5565b60008484015250505050565b6000620002256200021f84620001ac565b6200018d565b90508281526020810184848401111562000244576200024362000112565b5b62000251848285620001e2565b509392505050565b600082601f8301126200027157620002706200010d565b5b8151620002838482602086016200020e565b91505092915050565b60008060408385031215620002a657620002a562000103565b5b600083015167ffffffffffffffff811115620002c757620002c662000108565b5b620002d58582860162000259565b925050602083015167ffffffffffffffff811115620002f957620002f862000108565b5b620003078582860162000259565b9150509250929050565b600081519050919050565b7f4e487b7100000000000000000000000000000000000000000000000000000000600052602260045260246000fd5b600060028204905060018216806200036457607f821691505b6020821081036200037a57620003796200031c565b5b50919050565b60008190508160005260206000209050919050565b60006020601f8301049050919050565b600082821b905092915050565b600060088302620003e47fffffffffffffffffffffffffffffffffffffffffffffffffffffffffffffffff82620003a5565b620003f08683620003a5565b95508019841693508086168417925050509392505050565b6000819050919050565b6000819050919050565b60006200043d62000437620004318462000408565b62000412565b62000408565b9050919050565b6000819050919050565b62000459836200041c565b62000471620004688262000444565b848454620003b2565b825550505050565b600090565b6200048862000479565b620004958184846200044e565b505050565b5b81811015620004bd57620004b16000826200047e565b6001810190506200049b565b5050565b601f8211156200050c57620004d68162000380565b620004e18462000395565b81016020851015620004f1578190505b62000509620005008562000395565b8301826200049a565b50505b505050565b600082821c905092915050565b6000620005316000198460080262000511565b1980831691505092915050565b60006200054c83836200051e565b9150826002028217905092915050565b620005678262000311565b67ffffffffffffffff81111562000583576200058262000128565b5b6200058f82546200034b565b6200059c828285620004c1565b600060209050601f831160018114620005d45760008415620005bf578287015190505b620005cb85826200053e565b8655506200063b565b601f198416620005e48662000380565b60005b828110156200060e57848901518255600182019150602085019450602081019050620005e7565b868310156200062e57848901516200062a601f8916826200051e565b8355505b6001600288020188555050505b505050505050565b61134480620006536000396000f3fe608060405234801561001057600080fd5b50600436106100cf5760003560e01c806354bf4bc31161008c578063ae1ee53311610066578063ae1ee5331461018e578063ae200e79146101ac578063e7793e37146101ca578063f5c743f4146101fa576100cf565b806354bf4bc31461014a57806358959ba1146101545780639b37e0c314610170576100cf565b80631ff70522146100d4578063200d2ed2146100de57806333f17420146100fc57806343bb8db51461011a5780634a45110b146101245780634bf576cc1461012e575b600080fd5b6100dc610218565b005b6100e6610339565b6040516100f39190610e4b565b60405180910390f35b61010461034c565b6040516101119190610ea7565b60405180910390f35b610122610372565b005b61012c610534565b005b61014860048036038101906101439190610f14565b610697565b005b610152610900565b005b61016e60048036038101906101699190611087565b610ad6565b005b610178610c6e565b604051610185919061117e565b60405180910390f35b610196610cfc565b6040516101a391906111b9565b60405180910390f35b6101b4610d02565b6040516101c19190610ea7565b60405180910390f35b6101e460048036038101906101df9190610f14565b610d26565b6040516101f191906111ef565b60405180910390f35b610202610d46565b60405161020f919061117e565b60405180910390f35b600660009054906101000a900473ffffffffffffffffffffffffffffffffffffffff1673ffffffffffffffffffffffffffffffffffffffff163373ffffffffffffffffffffffffffffffffffffffff161461029f576040517f8ce9aa0b00000000000000000000000000000000000000000000000000000000815260040160405180910390fd5b600160068111156102b3576102b2610dd4565b5b600460009054906101000a900460ff1660068111156102d5576102d4610dd4565b5b1461030c576040517f4b372cd100000000000000000000000000000000000000000000000000000000815260040160405180910390fd5b6002600460006101000a81548160ff0219169083600681111561033257610331610dd4565b5b0217905550565b600460009054906101000a900460ff1681565b600660009054906101000a900473ffffffffffffffffffffffffffffffffffffffff1681565b60008054906101000a900473ffffffffffffffffffffffffffffffffffffffff1673ffffffffffffffffffffffffffffffffffffffff163373ffffffffffffffffffffffffffffffffffffffff16146103f7576040517fb865db7000000000000000000000000000000000000000000000000000000000815260040160405180910390fd5b6002600681111561040b5761040a610dd4565b5b600460009054906101000a900460ff16600681111561042d5761042c610dd4565b5b14610464576040517fc015b61f00000000000000000000000000000000000000000000000000000000815260040160405180910390fd5b60048060006101000a81548160ff0219169083600681111561048957610488610dd4565b5b0217905550600660009054906101000a900473ffffffffffffffffffffffffffffffffffffffff1673ffffffffffffffffffffffffffffffffffffffff166108fc6001549081150290604051600060405180830381858888f193505050501580156104f8573d6000803e3d6000fd5b50600660009054906101000a900473ffffffffffffffffffffffffffffffffffffffff1673ffffffffffffffffffffffffffffffffffffffff16ff5b60008054906101000a900473ffffffffffffffffffffffffffffffffffffffff1673ffffffffffffffffffffffffffffffffffffffff163373ffffffffffffffffffffffffffffffffffffffff16146105b9576040517fb865db7000000000000000000000000000000000000000000000000000000000815260040160405180910390fd5b600060068111156105cd576105cc610dd4565b5b600460009054906101000a900460ff1660068111156105ef576105ee610dd4565b5b14610626576040517f40baa63500000000000000000000000000000000000000000000000000000000815260040160405180910390fd5b6003600681111561063a57610639610dd4565b5b600460009054906101000a900460ff16600681111561065c5761065b610dd4565b5b505060008054906101000a900473ffffffffffffffffffffffffffffffffffffffff1673ffffffffffffffffffffffffffffffffffffffff16ff5b60008054906101000a900473ffffffffffffffffffffffffffffffffffffffff1673ffffffffffffffffffffffffffffffffffffffff163373ffffffffffffffffffffffffffffffffffffffff161461071c576040517fb865db7000000000000000000000000000000000000000000000000000000000815260040160405180910390fd5b600060068111156107305761072f610dd4565b5b600460009054906101000a900460ff16600681111561075257610751610dd4565b5b14610789576040517fe743c7dc00000000000000000000000000000000000000000000000000000000815260040160405180910390fd5b60008054906101000a900473ffffffffffffffffffffffffffffffffffffffff1673ffffffffffffffffffffffffffffffffffffffff168173ffffffffffffffffffffffffffffffffffffffff160361080e576040517fd9c8693100000000000000000000000000000000000000000000000000000000815260040160405180910390fd5b600560008273ffffffffffffffffffffffffffffffffffffffff1673ffffffffffffffffffffffffffffffffffffffff16815260200190815260200160002060009054906101000a900460ff16610891576040517f1c98f22100000000000000000000000000000000000000000000000000000000815260040160405180910390fd5b6001600460006101000a81548160ff021916908360068111156108b7576108b6610dd4565b5b021790555080600660006101000a81548173ffffffffffffffffffffffffffffffffffffffff021916908373ffffffffffffffffffffffffffffffffffffffff16021790555050565b6000600681111561091457610913610dd4565b5b600460009054906101000a900460ff16600681111561093657610935610dd4565b5b1461096d576040517fe743c7dc00000000000000000000000000000000000000000000000000000000815260040160405180910390fd5b60008054906101000a900473ffffffffffffffffffffffffffffffffffffffff1673ffffffffffffffffffffffffffffffffffffffff163373ffffffffffffffffffffffffffffffffffffffff16036109f2576040517fd9c8693100000000000000000000000000000000000000000000000000000000815260040160405180910390fd5b60011515600560003373ffffffffffffffffffffffffffffffffffffffff1673ffffffffffffffffffffffffffffffffffffffff16815260200190815260200160002060009054906101000a900460ff16151503610a7c576040517f7faa57d400000000000000000000000000000000000000000000000000000000815260040160405180910390fd5b6001600560003373ffffffffffffffffffffffffffffffffffffffff1673ffffffffffffffffffffffffffffffffffffffff16815260200190815260200160002060006101000a81548160ff021916908315150217905550565b60008054906101000a900473ffffffffffffffffffffffffffffffffffffffff1673ffffffffffffffffffffffffffffffffffffffff163373ffffffffffffffffffffffffffffffffffffffff1614610b5b576040517fb865db7000000000000000000000000000000000000000000000000000000000815260040160405180910390fd5b60026006811115610b6f57610b6e610dd4565b5b600460009054906101000a900460ff166006811115610b9157610b90610dd4565b5b14610be257600460009054906101000a900460ff166040517f973ba226000000000000000000000000000000000000000000000000000000008152600401610bd99190610e4b565b60405180910390fd5b6006600460006101000a81548160ff02191690836006811115610c0857610c07610dd4565b5b02179055507f1820008467fc0cf42493c0dc4ebb74b438ff75cd0e7365e13dae3b6a030aca35600660009054906101000a900473ffffffffffffffffffffffffffffffffffffffff168383604051610c6293929190611269565b60405180910390a15050565b60038054610c7b906112dd565b80601f0160208091040260200160405190810160405280929190818152602001828054610ca7906112dd565b8015610cf45780601f10610cc957610100808354040283529160200191610cf4565b820191906000526020600020905b815481529060010190602001808311610cd757829003601f168201915b505050505081565b60015481565b60008054906101000a900473ffffffffffffffffffffffffffffffffffffffff1681565b60056020528060005260406000206000915054906101000a900460ff1681565b60028054610d53906112dd565b80601f0160208091040260200160405190810160405280929190818152602001828054610d7f906112dd565b8015610dcc5780601f10610da157610100808354040283529160200191610dcc565b820191906000526020600020905b815481529060010190602001808311610daf57829003601f168201915b505050505081565b7f4e487b7100000000000000000000000000000000000000000000000000000000600052602160045260246000fd5b60078110610e1457610e13610dd4565b5b50565b6000819050610e2582610e03565b919050565b6000610e3582610e17565b9050919050565b610e4581610e2a565b82525050565b6000602082019050610e606000830184610e3c565b92915050565b600073ffffffffffffffffffffffffffffffffffffffff82169050919050565b6000610e9182610e66565b9050919050565b610ea181610e86565b82525050565b6000602082019050610ebc6000830184610e98565b92915050565b6000604051905090565b600080fd5b600080fd5b6000610ee182610e66565b9050919050565b610ef181610ed6565b8114610efc57600080fd5b50565b600081359050610f0e81610ee8565b92915050565b600060208284031215610f2a57610f29610ecc565b5b6000610f3884828501610eff565b91505092915050565b600080fd5b600080fd5b6000601f19601f8301169050919050565b7f4e487b7100000000000000000000000000000000000000000000000000000000600052604160045260246000fd5b610f9482610f4b565b810181811067ffffffffffffffff82111715610fb357610fb2610f5c565b5b80604052505050565b6000610fc6610ec2565b9050610fd28282610f8b565b919050565b600067ffffffffffffffff821115610ff257610ff1610f5c565b5b610ffb82610f4b565b9050602081019050919050565b82818337600083830152505050565b600061102a61102584610fd7565b610fbc565b90508281526020810184848401111561104657611045610f46565b5b611051848285611008565b509392505050565b600082601f83011261106e5761106d610f41565b5b813561107e848260208601611017565b91505092915050565b6000806040838503121561109e5761109d610ecc565b5b600083013567ffffffffffffffff8111156110bc576110bb610ed1565b5b6110c885828601611059565b925050602083013567ffffffffffffffff8111156110e9576110e8610ed1565b5b6110f585828601611059565b9150509250929050565b600081519050919050565b600082825260208201905092915050565b60005b8381101561113957808201518184015260208101905061111e565b60008484015250505050565b6000611150826110ff565b61115a818561110a565b935061116a81856020860161111b565b61117381610f4b565b840191505092915050565b600060208201905081810360008301526111988184611145565b905092915050565b6000819050919050565b6111b3816111a0565b82525050565b60006020820190506111ce60008301846111aa565b92915050565b60008115159050919050565b6111e9816111d4565b82525050565b600060208201905061120460008301846111e0565b92915050565b6000819050919050565b600061122f61122a61122584610e66565b61120a565b610e66565b9050919050565b600061124182611214565b9050919050565b600061125382611236565b9050919050565b61126381611248565b82525050565b600060608201905061127e600083018661125a565b81810360208301526112908185611145565b905081810360408301526112a48184611145565b9050949350505050565b7f4e487b7100000000000000000000000000000000000000000000000000000000600052602260045260246000fd5b600060028204905060018216806112f557607f821691505b602082108103611308576113076112ae565b5b5091905056fea26469706673582212208e92c4bf80e00ea1d285baa4331791a1f349921d806d03f18e04e35b04b5d20064736f6c63430008110033",
  "linkReferences": {},
  "deployedLinkReferences": {}
}