{
  "_format": "hh-sol-artifact-1",
  "contractName": "ProjectTask",
  "sourceName": "contracts/ProjectTask.sol",
  "abi": [
    {
      "inputs": [
        {
          "internalType": "string",
          "name": "_short_title",
          "type": "string"
        },
        {
          "internalType": "string",
          "name": "_task_description_link",
          "type": "string"
        }
      ],
      "stateMutability": "payable",
      "type": "constructor"
    },
    {
      "inputs": [],
      "name": "AssignedTaskCannotBeRejected",
      "type": "error"
    },
    {
      "inputs": [],
      "name": "EmployerCannotBePerformer",
      "type": "error"
    },
    {
      "inputs": [],
      "name": "OnlyEmployerCanDoThis",
      "type": "error"
    },
    {
      "inputs": [],
      "name": "OnlyPerformerCanDoThis",
      "type": "error"
    },
    {
      "inputs": [],
      "name": "PerformerAlreadyWish",
      "type": "error"
    },
    {
      "inputs": [],
      "name": "PerformerIsNotWishingDoThis",
      "type": "error"
    },
    {
      "inputs": [],
      "name": "TaskIsNotInProgress",
      "type": "error"
    },
    {
      "inputs": [
        {
          "internalType": "enum Status",
          "name": "status",
          "type": "uint8"
        }
      ],
      "name": "TaskIsNotOnReview",
      "type": "error"
    },
    {
      "inputs": [],
      "name": "TaskIsStillInProgress",
      "type": "error"
    },
    {
      "inputs": [],
      "name": "TaskNotPendingPerformer",
      "type": "error"
    },
    {
      "anonymous": false,
      "inputs": [
        {
          "indexed": false,
          "internalType": "address",
          "name": "employerAddr",
          "type": "address"
        },
        {
          "indexed": false,
          "internalType": "string",
          "name": "message",
          "type": "string"
        }
      ],
      "name": "RefusalTaskByPerformer",
      "type": "event"
    },
    {
      "anonymous": false,
      "inputs": [
        {
          "indexed": false,
          "internalType": "address",
          "name": "recipient",
          "type": "address"
        },
        {
          "indexed": false,
          "internalType": "string",
          "name": "message",
          "type": "string"
        },
        {
          "indexed": false,
          "internalType": "string",
          "name": "additionalLink",
          "type": "string"
        }
      ],
      "name": "RequestForChanges",
      "type": "event"
    },
    {
      "inputs": [
        {
          "internalType": "address",
          "name": "performer",
          "type": "address"
        }
      ],
      "name": "assignPerformer",
      "outputs": [],
      "stateMutability": "nonpayable",
      "type": "function"
    },
    {
      "inputs": [],
      "name": "assignRequest",
      "outputs": [],
      "stateMutability": "nonpayable",
      "type": "function"
    },
    {
      "inputs": [],
      "name": "completeTask",
      "outputs": [],
      "stateMutability": "nonpayable",
      "type": "function"
    },
    {
      "inputs": [],
      "name": "employer",
      "outputs": [
        {
          "internalType": "address payable",
          "name": "",
          "type": "address"
        }
      ],
      "stateMutability": "view",
      "type": "function"
    },
    {
      "inputs": [],
      "name": "rejectTask",
      "outputs": [],
      "stateMutability": "nonpayable",
      "type": "function"
    },
    {
      "inputs": [
        {
          "internalType": "string",
          "name": "message",
          "type": "string"
        }
      ],
      "name": "renounceTaskWithMessage",
      "outputs": [],
      "stateMutability": "nonpayable",
      "type": "function"
    },
    {
      "inputs": [
        {
          "internalType": "string",
          "name": "message",
          "type": "string"
        },
        {
          "internalType": "string",
          "name": "additional_link",
          "type": "string"
        }
      ],
      "name": "requestChanges",
      "outputs": [],
      "stateMutability": "nonpayable",
      "type": "function"
    },
    {
      "inputs": [],
      "name": "revokeAssignRequest",
      "outputs": [],
      "stateMutability": "nonpayable",
      "type": "function"
    },
    {
      "inputs": [],
      "name": "selected_performer",
      "outputs": [
        {
          "internalType": "address payable",
          "name": "",
          "type": "address"
        }
      ],
      "stateMutability": "view",
      "type": "function"
    },
    {
      "inputs": [],
      "name": "sendTaskToReview",
      "outputs": [],
      "stateMutability": "nonpayable",
      "type": "function"
    },
    {
      "inputs": [],
      "name": "short_title",
      "outputs": [
        {
          "internalType": "string",
          "name": "",
          "type": "string"
        }
      ],
      "stateMutability": "view",
      "type": "function"
    },
    {
      "inputs": [],
      "name": "status",
      "outputs": [
        {
          "internalType": "enum Status",
          "name": "",
          "type": "uint8"
        }
      ],
      "stateMutability": "view",
      "type": "function"
    },
    {
      "inputs": [],
      "name": "task_cost",
      "outputs": [
        {
          "internalType": "uint256",
          "name": "",
          "type": "uint256"
        }
      ],
      "stateMutability": "view",
      "type": "function"
    },
    {
      "inputs": [],
      "name": "task_description_link",
      "outputs": [
        {
          "internalType": "string",
          "name": "",
          "type": "string"
        }
      ],
      "stateMutability": "view",
      "type": "function"
    },
    {
      "inputs": [
        {
          "internalType": "address",
          "name": "",
          "type": "address"
        }
      ],
      "name": "wishing_performers",
      "outputs": [
        {
          "internalType": "bool",
          "name": "",
          "type": "bool"
        }
      ],
      "stateMutability": "view",
      "type": "function"
    },
    {
      "stateMutability": "payable",
      "type": "receive"
    }
  ],
  "bytecode": "0x60806040526000600460006101000a81548160ff021916908360068111156200002d576200002c620000ca565b5b021790555060405162001f1538038062001f1583398181016040528101906200005791906200028c565b336000806101000a81548173ffffffffffffffffffffffffffffffffffffffff021916908373ffffffffffffffffffffffffffffffffffffffff1602179055508060029081620000a891906200055c565b508160039081620000ba91906200055c565b5034600181905550505062000643565b7f4e487b7100000000000000000000000000000000000000000000000000000000600052602160045260246000fd5b6000604051905090565b600080fd5b600080fd5b600080fd5b600080fd5b6000601f19601f8301169050919050565b7f4e487b7100000000000000000000000000000000000000000000000000000000600052604160045260246000fd5b620001628262000117565b810181811067ffffffffffffffff8211171562000184576200018362000128565b5b80604052505050565b600062000199620000f9565b9050620001a7828262000157565b919050565b600067ffffffffffffffff821115620001ca57620001c962000128565b5b620001d58262000117565b9050602081019050919050565b60005b8381101562000202578082015181840152602081019050620001e5565b60008484015250505050565b6000620002256200021f84620001ac565b6200018d565b90508281526020810184848401111562000244576200024362000112565b5b62000251848285620001e2565b509392505050565b600082601f8301126200027157620002706200010d565b5b8151620002838482602086016200020e565b91505092915050565b60008060408385031215620002a657620002a562000103565b5b600083015167ffffffffffffffff811115620002c757620002c662000108565b5b620002d58582860162000259565b925050602083015167ffffffffffffffff811115620002f957620002f862000108565b5b620003078582860162000259565b9150509250929050565b600081519050919050565b7f4e487b7100000000000000000000000000000000000000000000000000000000600052602260045260246000fd5b600060028204905060018216806200036457607f821691505b6020821081036200037a57620003796200031c565b5b50919050565b60008190508160005260206000209050919050565b60006020601f8301049050919050565b600082821b905092915050565b600060088302620003e47fffffffffffffffffffffffffffffffffffffffffffffffffffffffffffffffff82620003a5565b620003f08683620003a5565b95508019841693508086168417925050509392505050565b6000819050919050565b6000819050919050565b60006200043d62000437620004318462000408565b62000412565b62000408565b9050919050565b6000819050919050565b62000459836200041c565b62000471620004688262000444565b848454620003b2565b825550505050565b600090565b6200048862000479565b620004958184846200044e565b505050565b5b81811015620004bd57620004b16000826200047e565b6001810190506200049b565b5050565b601f8211156200050c57620004d68162000380565b620004e18462000395565b81016020851015620004f1578190505b62000509620005008562000395565b8301826200049a565b50505b505050565b600082821c905092915050565b6000620005316000198460080262000511565b1980831691505092915050565b60006200054c83836200051e565b9150826002028217905092915050565b620005678262000311565b67ffffffffffffffff81111562000583576200058262000128565b5b6200058f82546200034b565b6200059c828285620004c1565b600060209050601f831160018114620005d45760008415620005bf578287015190505b620005cb85826200053e565b8655506200063b565b601f198416620005e48662000380565b60005b828110156200060e57848901518255600182019150602085019450602081019050620005e7565b868310156200062e57848901516200062a601f8916826200051e565b8355505b6001600288020188555050505b505050505050565b6118c280620006536000396000f3fe6080604052600436106100eb5760003560e01c806354bf4bc31161008a578063ae1ee53311610059578063ae1ee5331461027e578063ae200e79146102a9578063e7793e37146102d4578063f5c743f4146103115761010a565b806354bf4bc3146101ea57806358959ba1146102015780639b37e0c31461022a578063a26616aa146102555761010a565b806333f17420116100c657806333f174201461016857806343bb8db5146101935780634a45110b146101aa5780634bf576cc146101c15761010a565b80626a25901461010f5780631ff7052214610126578063200d2ed21461013d5761010a565b3661010a57346001600082825461010291906112af565b925050819055005b600080fd5b34801561011b57600080fd5b5061012461033c565b005b34801561013257600080fd5b5061013b610512565b005b34801561014957600080fd5b50610152610633565b60405161015f919061135a565b60405180910390f35b34801561017457600080fd5b5061017d610646565b60405161018a91906113b6565b60405180910390f35b34801561019f57600080fd5b506101a861066c565b005b3480156101b657600080fd5b506101bf61082e565b005b3480156101cd57600080fd5b506101e860048036038101906101e39190611423565b610991565b005b3480156101f657600080fd5b506101ff610bfa565b005b34801561020d57600080fd5b5061022860048036038101906102239190611596565b610dd0565b005b34801561023657600080fd5b5061023f610f68565b60405161024c919061168d565b60405180910390f35b34801561026157600080fd5b5061027c600480360381019061027791906116af565b610ff6565b005b34801561028a57600080fd5b5061029361119e565b6040516102a09190611707565b60405180910390f35b3480156102b557600080fd5b506102be6111a4565b6040516102cb91906113b6565b60405180910390f35b3480156102e057600080fd5b506102fb60048036038101906102f69190611423565b6111c8565b604051610308919061173d565b60405180910390f35b34801561031d57600080fd5b506103266111e8565b604051610333919061168d565b60405180910390f35b600060068111156103505761034f6112e3565b5b600460009054906101000a900460ff166006811115610372576103716112e3565b5b146103a9576040517fe743c7dc00000000000000000000000000000000000000000000000000000000815260040160405180910390fd5b60008054906101000a900473ffffffffffffffffffffffffffffffffffffffff1673ffffffffffffffffffffffffffffffffffffffff163373ffffffffffffffffffffffffffffffffffffffff160361042e576040517fd9c8693100000000000000000000000000000000000000000000000000000000815260040160405180910390fd5b60001515600560003373ffffffffffffffffffffffffffffffffffffffff1673ffffffffffffffffffffffffffffffffffffffff16815260200190815260200160002060009054906101000a900460ff161515036104b8576040517f1c98f22100000000000000000000000000000000000000000000000000000000815260040160405180910390fd5b6000600560003373ffffffffffffffffffffffffffffffffffffffff1673ffffffffffffffffffffffffffffffffffffffff16815260200190815260200160002060006101000a81548160ff021916908315150217905550565b600660009054906101000a900473ffffffffffffffffffffffffffffffffffffffff1673ffffffffffffffffffffffffffffffffffffffff163373ffffffffffffffffffffffffffffffffffffffff1614610599576040517f8ce9aa0b00000000000000000000000000000000000000000000000000000000815260040160405180910390fd5b600160068111156105ad576105ac6112e3565b5b600460009054906101000a900460ff1660068111156105cf576105ce6112e3565b5b14610606576040517f4b372cd100000000000000000000000000000000000000000000000000000000815260040160405180910390fd5b6002600460006101000a81548160ff0219169083600681111561062c5761062b6112e3565b5b0217905550565b600460009054906101000a900460ff1681565b600660009054906101000a900473ffffffffffffffffffffffffffffffffffffffff1681565b60008054906101000a900473ffffffffffffffffffffffffffffffffffffffff1673ffffffffffffffffffffffffffffffffffffffff163373ffffffffffffffffffffffffffffffffffffffff16146106f1576040517fb865db7000000000000000000000000000000000000000000000000000000000815260040160405180910390fd5b60026006811115610705576107046112e3565b5b600460009054906101000a900460ff166006811115610727576107266112e3565b5b1461075e576040517fc015b61f00000000000000000000000000000000000000000000000000000000815260040160405180910390fd5b60048060006101000a81548160ff02191690836006811115610783576107826112e3565b5b0217905550600660009054906101000a900473ffffffffffffffffffffffffffffffffffffffff1673ffffffffffffffffffffffffffffffffffffffff166108fc6001549081150290604051600060405180830381858888f193505050501580156107f2573d6000803e3d6000fd5b50600660009054906101000a900473ffffffffffffffffffffffffffffffffffffffff1673ffffffffffffffffffffffffffffffffffffffff16ff5b60008054906101000a900473ffffffffffffffffffffffffffffffffffffffff1673ffffffffffffffffffffffffffffffffffffffff163373ffffffffffffffffffffffffffffffffffffffff16146108b3576040517fb865db7000000000000000000000000000000000000000000000000000000000815260040160405180910390fd5b600060068111156108c7576108c66112e3565b5b600460009054906101000a900460ff1660068111156108e9576108e86112e3565b5b14610920576040517f40baa63500000000000000000000000000000000000000000000000000000000815260040160405180910390fd5b60036006811115610934576109336112e3565b5b600460009054906101000a900460ff166006811115610956576109556112e3565b5b505060008054906101000a900473ffffffffffffffffffffffffffffffffffffffff1673ffffffffffffffffffffffffffffffffffffffff16ff5b60008054906101000a900473ffffffffffffffffffffffffffffffffffffffff1673ffffffffffffffffffffffffffffffffffffffff163373ffffffffffffffffffffffffffffffffffffffff1614610a16576040517fb865db7000000000000000000000000000000000000000000000000000000000815260040160405180910390fd5b60006006811115610a2a57610a296112e3565b5b600460009054906101000a900460ff166006811115610a4c57610a4b6112e3565b5b14610a83576040517fe743c7dc00000000000000000000000000000000000000000000000000000000815260040160405180910390fd5b60008054906101000a900473ffffffffffffffffffffffffffffffffffffffff1673ffffffffffffffffffffffffffffffffffffffff168173ffffffffffffffffffffffffffffffffffffffff1603610b08576040517fd9c8693100000000000000000000000000000000000000000000000000000000815260040160405180910390fd5b600560008273ffffffffffffffffffffffffffffffffffffffff1673ffffffffffffffffffffffffffffffffffffffff16815260200190815260200160002060009054906101000a900460ff16610b8b576040517f1c98f22100000000000000000000000000000000000000000000000000000000815260040160405180910390fd5b6001600460006101000a81548160ff02191690836006811115610bb157610bb06112e3565b5b021790555080600660006101000a81548173ffffffffffffffffffffffffffffffffffffffff021916908373ffffffffffffffffffffffffffffffffffffffff16021790555050565b60006006811115610c0e57610c0d6112e3565b5b600460009054906101000a900460ff166006811115610c3057610c2f6112e3565b5b14610c67576040517fe743c7dc00000000000000000000000000000000000000000000000000000000815260040160405180910390fd5b60008054906101000a900473ffffffffffffffffffffffffffffffffffffffff1673ffffffffffffffffffffffffffffffffffffffff163373ffffffffffffffffffffffffffffffffffffffff1603610cec576040517fd9c8693100000000000000000000000000000000000000000000000000000000815260040160405180910390fd5b60011515600560003373ffffffffffffffffffffffffffffffffffffffff1673ffffffffffffffffffffffffffffffffffffffff16815260200190815260200160002060009054906101000a900460ff16151503610d76576040517f7faa57d400000000000000000000000000000000000000000000000000000000815260040160405180910390fd5b6001600560003373ffffffffffffffffffffffffffffffffffffffff1673ffffffffffffffffffffffffffffffffffffffff16815260200190815260200160002060006101000a81548160ff021916908315150217905550565b60008054906101000a900473ffffffffffffffffffffffffffffffffffffffff1673ffffffffffffffffffffffffffffffffffffffff163373ffffffffffffffffffffffffffffffffffffffff1614610e55576040517fb865db7000000000000000000000000000000000000000000000000000000000815260040160405180910390fd5b60026006811115610e6957610e686112e3565b5b600460009054906101000a900460ff166006811115610e8b57610e8a6112e3565b5b14610edc57600460009054906101000a900460ff166040517f973ba226000000000000000000000000000000000000000000000000000000008152600401610ed3919061135a565b60405180910390fd5b6006600460006101000a81548160ff02191690836006811115610f0257610f016112e3565b5b02179055507f1820008467fc0cf42493c0dc4ebb74b438ff75cd0e7365e13dae3b6a030aca35600660009054906101000a900473ffffffffffffffffffffffffffffffffffffffff168383604051610f5c939291906117b7565b60405180910390a15050565b60038054610f759061182b565b80601f0160208091040260200160405190810160405280929190818152602001828054610fa19061182b565b8015610fee5780601f10610fc357610100808354040283529160200191610fee565b820191906000526020600020905b815481529060010190602001808311610fd157829003601f168201915b505050505081565b600660009054906101000a900473ffffffffffffffffffffffffffffffffffffffff1673ffffffffffffffffffffffffffffffffffffffff163373ffffffffffffffffffffffffffffffffffffffff161461107d576040517f8ce9aa0b00000000000000000000000000000000000000000000000000000000815260040160405180910390fd5b6000600460006101000a81548160ff021916908360068111156110a3576110a26112e3565b5b02179055506000600660006101000a81548173ffffffffffffffffffffffffffffffffffffffff021916908373ffffffffffffffffffffffffffffffffffffffff1602179055506000600560003373ffffffffffffffffffffffffffffffffffffffff1673ffffffffffffffffffffffffffffffffffffffff16815260200190815260200160002060006101000a81548160ff0219169083151502179055507fe871ee8ea724d2a2e048ea20e2636f4eeb1e6fb9fd7d2f5cb23e9e876241f2e160008054906101000a900473ffffffffffffffffffffffffffffffffffffffff168260405161119392919061185c565b60405180910390a150565b60015481565b60008054906101000a900473ffffffffffffffffffffffffffffffffffffffff1681565b60056020528060005260406000206000915054906101000a900460ff1681565b600280546111f59061182b565b80601f01602080910402602001604051908101604052809291908181526020018280546112219061182b565b801561126e5780601f106112435761010080835404028352916020019161126e565b820191906000526020600020905b81548152906001019060200180831161125157829003601f168201915b505050505081565b6000819050919050565b7f4e487b7100000000000000000000000000000000000000000000000000000000600052601160045260246000fd5b60006112ba82611276565b91506112c583611276565b92508282019050808211156112dd576112dc611280565b5b92915050565b7f4e487b7100000000000000000000000000000000000000000000000000000000600052602160045260246000fd5b60078110611323576113226112e3565b5b50565b600081905061133482611312565b919050565b600061134482611326565b9050919050565b61135481611339565b82525050565b600060208201905061136f600083018461134b565b92915050565b600073ffffffffffffffffffffffffffffffffffffffff82169050919050565b60006113a082611375565b9050919050565b6113b081611395565b82525050565b60006020820190506113cb60008301846113a7565b92915050565b6000604051905090565b600080fd5b600080fd5b60006113f082611375565b9050919050565b611400816113e5565b811461140b57600080fd5b50565b60008135905061141d816113f7565b92915050565b600060208284031215611439576114386113db565b5b60006114478482850161140e565b91505092915050565b600080fd5b600080fd5b6000601f19601f8301169050919050565b7f4e487b7100000000000000000000000000000000000000000000000000000000600052604160045260246000fd5b6114a38261145a565b810181811067ffffffffffffffff821117156114c2576114c161146b565b5b80604052505050565b60006114d56113d1565b90506114e1828261149a565b919050565b600067ffffffffffffffff8211156115015761150061146b565b5b61150a8261145a565b9050602081019050919050565b82818337600083830152505050565b6000611539611534846114e6565b6114cb565b90508281526020810184848401111561155557611554611455565b5b611560848285611517565b509392505050565b600082601f83011261157d5761157c611450565b5b813561158d848260208601611526565b91505092915050565b600080604083850312156115ad576115ac6113db565b5b600083013567ffffffffffffffff8111156115cb576115ca6113e0565b5b6115d785828601611568565b925050602083013567ffffffffffffffff8111156115f8576115f76113e0565b5b61160485828601611568565b9150509250929050565b600081519050919050565b600082825260208201905092915050565b60005b8381101561164857808201518184015260208101905061162d565b60008484015250505050565b600061165f8261160e565b6116698185611619565b935061167981856020860161162a565b6116828161145a565b840191505092915050565b600060208201905081810360008301526116a78184611654565b905092915050565b6000602082840312156116c5576116c46113db565b5b600082013567ffffffffffffffff8111156116e3576116e26113e0565b5b6116ef84828501611568565b91505092915050565b61170181611276565b82525050565b600060208201905061171c60008301846116f8565b92915050565b60008115159050919050565b61173781611722565b82525050565b6000602082019050611752600083018461172e565b92915050565b6000819050919050565b600061177d61177861177384611375565b611758565b611375565b9050919050565b600061178f82611762565b9050919050565b60006117a182611784565b9050919050565b6117b181611796565b82525050565b60006060820190506117cc60008301866117a8565b81810360208301526117de8185611654565b905081810360408301526117f28184611654565b9050949350505050565b7f4e487b7100000000000000000000000000000000000000000000000000000000600052602260045260246000fd5b6000600282049050600182168061184357607f821691505b602082108103611856576118556117fc565b5b50919050565b600060408201905061187160008301856117a8565b81810360208301526118838184611654565b9050939250505056fea2646970667358221220ec1aa9510b758991bdf68467ce987d6f356e1dafb37283bb2386544acc8f283064736f6c63430008110033",
  "linkReferences": {},
  "deployedLinkReferences": {}
}