{"contracts/ProjectTask.sol":{"ProjectTask":{"abi":[{"inputs":[{"internalType":"string","name":"_short_title","type":"string"},{"internalType":"string","name":"_task_description_link","type":"string"}],"stateMutability":"payable","type":"constructor"},{"inputs":[],"name":"AssignedTaskCannotBeRejected","type":"error"},{"inputs":[],"name":"EmployerCannotBePerformer","type":"error"},{"inputs":[],"name":"OnlyEmployerCanDoThis","type":"error"},{"inputs":[],"name":"OnlyPerformerCanDoThis","type":"error"},{"inputs":[],"name":"PerformerAlreadyWish","type":"error"},{"inputs":[],"name":"PerformerIsNotWishingDoThis","type":"error"},{"inputs":[],"name":"TaskIsNotInProgress","type":"error"},{"inputs":[{"internalType":"enum Status","name":"status","type":"uint8"}],"name":"TaskIsNotOnReview","type":"error"},{"inputs":[],"name":"TaskIsStillInProgress","type":"error"},{"inputs":[],"name":"TaskNotPendingPerformer","type":"error"},{"anonymous":false,"inputs":[{"indexed":false,"internalType":"address","name":"employerAddr","type":"address"},{"indexed":false,"internalType":"string","name":"message","type":"string"}],"name":"RefusalTaskByPerformer","type":"event"},{"anonymous":false,"inputs":[{"indexed":false,"internalType":"address","name":"recipient","type":"address"},{"indexed":false,"internalType":"string","name":"message","type":"string"},{"indexed":false,"internalType":"string","name":"additionalLink","type":"string"}],"name":"RequestForChanges","type":"event"},{"inputs":[{"internalType":"address","name":"performer","type":"address"}],"name":"assignPerformer","outputs":[],"stateMutability":"nonpayable","type":"function"},{"inputs":[],"name":"assignRequest","outputs":[],"stateMutability":"nonpayable","type":"function"},{"inputs":[],"name":"completeTask","outputs":[],"stateMutability":"nonpayable","type":"function"},{"inputs":[],"name":"employer","outputs":[{"internalType":"address payable","name":"","type":"address"}],"stateMutability":"view","type":"function"},{"inputs":[],"name":"rejectTask","outputs":[],"stateMutability":"nonpayable","type":"function"},{"inputs":[{"internalType":"string","name":"message","type":"string"}],"name":"renounceTaskWithMessage","outputs":[],"stateMutability":"nonpayable","type":"function"},{"inputs":[{"internalType":"string","name":"message","type":"string"},{"internalType":"string","name":"additional_link","type":"string"}],"name":"requestChanges","outputs":[],"stateMutability":"nonpayable","type":"function"},{"inputs":[],"name":"revokeAssignRequest","outputs":[],"stateMutability":"nonpayable","type":"function"},{"inputs":[],"name":"selected_performer","outputs":[{"internalType":"address payable","name":"","type":"address"}],"stateMutability":"view","type":"function"},{"inputs":[],"name":"sendTaskToReview","outputs":[],"stateMutability":"nonpayable","type":"function"},{"inputs":[],"name":"short_title","outputs":[{"internalType":"string","name":"","type":"string"}],"stateMutability":"view","type":"function"},{"inputs":[],"name":"status","outputs":[{"internalType":"enum Status","name":"","type":"uint8"}],"stateMutability":"view","type":"function"},{"inputs":[],"name":"task_cost","outputs":[{"internalType":"uint256","name":"","type":"uint256"}],"stateMutability":"view","type":"function"},{"inputs":[],"name":"task_description_link","outputs":[{"internalType":"string","name":"","type":"string"}],"stateMutability":"view","type":"function"},{"inputs":[{"internalType":"address","name":"","type":"address"}],"name":"wishing_performers","outputs":[{"internalType":"bool","name":"","type":"bool"}],"stateMutability":"view","type":"function"},{"stateMutability":"payable","type":"receive"}],"evm":{"bytecode":{"linkReferences":{},"object":"60806040526000600460006101000a81548160ff021916908360068111156200002d576200002c620000ca565b5b021790555060405162001f1538038062001f1583398181016040528101906200005791906200028c565b336000806101000a81548173ffffffffffffffffffffffffffffffffffffffff021916908373ffffffffffffffffffffffffffffffffffffffff1602179055508060029081620000a891906200055c565b508160039081620000ba91906200055c565b5034600181905550505062000643565b7f4e487b7100000000000000000000000000000000000000000000000000000000600052602160045260246000fd5b6000604051905090565b600080fd5b600080fd5b600080fd5b600080fd5b6000601f19601f8301169050919050565b7f4e487b7100000000000000000000000000000000000000000000000000000000600052604160045260246000fd5b620001628262000117565b810181811067ffffffffffffffff8211171562000184576200018362000128565b5b80604052505050565b600062000199620000f9565b9050620001a7828262000157565b919050565b600067ffffffffffffffff821115620001ca57620001c962000128565b5b620001d58262000117565b9050602081019050919050565b60005b8381101562000202578082015181840152602081019050620001e5565b60008484015250505050565b6000620002256200021f84620001ac565b6200018d565b90508281526020810184848401111562000244576200024362000112565b5b62000251848285620001e2565b509392505050565b600082601f8301126200027157620002706200010d565b5b8151620002838482602086016200020e565b91505092915050565b60008060408385031215620002a657620002a562000103565b5b600083015167ffffffffffffffff811115620002c757620002c662000108565b5b620002d58582860162000259565b925050602083015167ffffffffffffffff811115620002f957620002f862000108565b5b620003078582860162000259565b9150509250929050565b600081519050919050565b7f4e487b7100000000000000000000000000000000000000000000000000000000600052602260045260246000fd5b600060028204905060018216806200036457607f821691505b6020821081036200037a57620003796200031c565b5b50919050565b60008190508160005260206000209050919050565b60006020601f8301049050919050565b600082821b905092915050565b600060088302620003e47fffffffffffffffffffffffffffffffffffffffffffffffffffffffffffffffff82620003a5565b620003f08683620003a5565b95508019841693508086168417925050509392505050565b6000819050919050565b6000819050919050565b60006200043d62000437620004318462000408565b62000412565b62000408565b9050919050565b6000819050919050565b62000459836200041c565b62000471620004688262000444565b848454620003b2565b825550505050565b600090565b6200048862000479565b620004958184846200044e565b505050565b5b81811015620004bd57620004b16000826200047e565b6001810190506200049b565b5050565b601f8211156200050c57620004d68162000380565b620004e18462000395565b81016020851015620004f1578190505b62000509620005008562000395565b8301826200049a565b50505b505050565b600082821c905092915050565b6000620005316000198460080262000511565b1980831691505092915050565b60006200054c83836200051e565b9150826002028217905092915050565b620005678262000311565b67ffffffffffffffff81111562000583576200058262000128565b5b6200058f82546200034b565b6200059c828285620004c1565b600060209050601f831160018114620005d45760008415620005bf578287015190505b620005cb85826200053e565b8655506200063b565b601f198416620005e48662000380565b60005b828110156200060e57848901518255600182019150602085019450602081019050620005e7565b868310156200062e57848901516200062a601f8916826200051e565b8355505b6001600288020188555050505b505050505050565b6118c280620006536000396000f3fe6080604052600436106100eb5760003560e01c806354bf4bc31161008a578063ae1ee53311610059578063ae1ee5331461027e578063ae200e79146102a9578063e7793e37146102d4578063f5c743f4146103115761010a565b806354bf4bc3146101ea57806358959ba1146102015780639b37e0c31461022a578063a26616aa146102555761010a565b806333f17420116100c657806333f174201461016857806343bb8db5146101935780634a45110b146101aa5780634bf576cc146101c15761010a565b80626a25901461010f5780631ff7052214610126578063200d2ed21461013d5761010a565b3661010a57346001600082825461010291906112af565b925050819055005b600080fd5b34801561011b57600080fd5b5061012461033c565b005b34801561013257600080fd5b5061013b610512565b005b34801561014957600080fd5b50610152610633565b60405161015f919061135a565b60405180910390f35b34801561017457600080fd5b5061017d610646565b60405161018a91906113b6565b60405180910390f35b34801561019f57600080fd5b506101a861066c565b005b3480156101b657600080fd5b506101bf61082e565b005b3480156101cd57600080fd5b506101e860048036038101906101e39190611423565b610991565b005b3480156101f657600080fd5b506101ff610bfa565b005b34801561020d57600080fd5b5061022860048036038101906102239190611596565b610dd0565b005b34801561023657600080fd5b5061023f610f68565b60405161024c919061168d565b60405180910390f35b34801561026157600080fd5b5061027c600480360381019061027791906116af565b610ff6565b005b34801561028a57600080fd5b5061029361119e565b6040516102a09190611707565b60405180910390f35b3480156102b557600080fd5b506102be6111a4565b6040516102cb91906113b6565b60405180910390f35b3480156102e057600080fd5b506102fb60048036038101906102f69190611423565b6111c8565b604051610308919061173d565b60405180910390f35b34801561031d57600080fd5b506103266111e8565b604051610333919061168d565b60405180910390f35b600060068111156103505761034f6112e3565b5b600460009054906101000a900460ff166006811115610372576103716112e3565b5b146103a9576040517fe743c7dc00000000000000000000000000000000000000000000000000000000815260040160405180910390fd5b60008054906101000a900473ffffffffffffffffffffffffffffffffffffffff1673ffffffffffffffffffffffffffffffffffffffff163373ffffffffffffffffffffffffffffffffffffffff160361042e576040517fd9c8693100000000000000000000000000000000000000000000000000000000815260040160405180910390fd5b60001515600560003373ffffffffffffffffffffffffffffffffffffffff1673ffffffffffffffffffffffffffffffffffffffff16815260200190815260200160002060009054906101000a900460ff161515036104b8576040517f1c98f22100000000000000000000000000000000000000000000000000000000815260040160405180910390fd5b6000600560003373ffffffffffffffffffffffffffffffffffffffff1673ffffffffffffffffffffffffffffffffffffffff16815260200190815260200160002060006101000a81548160ff021916908315150217905550565b600660009054906101000a900473ffffffffffffffffffffffffffffffffffffffff1673ffffffffffffffffffffffffffffffffffffffff163373ffffffffffffffffffffffffffffffffffffffff1614610599576040517f8ce9aa0b00000000000000000000000000000000000000000000000000000000815260040160405180910390fd5b600160068111156105ad576105ac6112e3565b5b600460009054906101000a900460ff1660068111156105cf576105ce6112e3565b5b14610606576040517f4b372cd100000000000000000000000000000000000000000000000000000000815260040160405180910390fd5b6002600460006101000a81548160ff0219169083600681111561062c5761062b6112e3565b5b0217905550565b600460009054906101000a900460ff1681565b600660009054906101000a900473ffffffffffffffffffffffffffffffffffffffff1681565b60008054906101000a900473ffffffffffffffffffffffffffffffffffffffff1673ffffffffffffffffffffffffffffffffffffffff163373ffffffffffffffffffffffffffffffffffffffff16146106f1576040517fb865db7000000000000000000000000000000000000000000000000000000000815260040160405180910390fd5b60026006811115610705576107046112e3565b5b600460009054906101000a900460ff166006811115610727576107266112e3565b5b1461075e576040517fc015b61f00000000000000000000000000000000000000000000000000000000815260040160405180910390fd5b60048060006101000a81548160ff02191690836006811115610783576107826112e3565b5b0217905550600660009054906101000a900473ffffffffffffffffffffffffffffffffffffffff1673ffffffffffffffffffffffffffffffffffffffff166108fc6001549081150290604051600060405180830381858888f193505050501580156107f2573d6000803e3d6000fd5b50600660009054906101000a900473ffffffffffffffffffffffffffffffffffffffff1673ffffffffffffffffffffffffffffffffffffffff16ff5b60008054906101000a900473ffffffffffffffffffffffffffffffffffffffff1673ffffffffffffffffffffffffffffffffffffffff163373ffffffffffffffffffffffffffffffffffffffff16146108b3576040517fb865db7000000000000000000000000000000000000000000000000000000000815260040160405180910390fd5b600060068111156108c7576108c66112e3565b5b600460009054906101000a900460ff1660068111156108e9576108e86112e3565b5b14610920576040517f40baa63500000000000000000000000000000000000000000000000000000000815260040160405180910390fd5b60036006811115610934576109336112e3565b5b600460009054906101000a900460ff166006811115610956576109556112e3565b5b505060008054906101000a900473ffffffffffffffffffffffffffffffffffffffff1673ffffffffffffffffffffffffffffffffffffffff16ff5b60008054906101000a900473ffffffffffffffffffffffffffffffffffffffff1673ffffffffffffffffffffffffffffffffffffffff163373ffffffffffffffffffffffffffffffffffffffff1614610a16576040517fb865db7000000000000000000000000000000000000000000000000000000000815260040160405180910390fd5b60006006811115610a2a57610a296112e3565b5b600460009054906101000a900460ff166006811115610a4c57610a4b6112e3565b5b14610a83576040517fe743c7dc00000000000000000000000000000000000000000000000000000000815260040160405180910390fd5b60008054906101000a900473ffffffffffffffffffffffffffffffffffffffff1673ffffffffffffffffffffffffffffffffffffffff168173ffffffffffffffffffffffffffffffffffffffff1603610b08576040517fd9c8693100000000000000000000000000000000000000000000000000000000815260040160405180910390fd5b600560008273ffffffffffffffffffffffffffffffffffffffff1673ffffffffffffffffffffffffffffffffffffffff16815260200190815260200160002060009054906101000a900460ff16610b8b576040517f1c98f22100000000000000000000000000000000000000000000000000000000815260040160405180910390fd5b6001600460006101000a81548160ff02191690836006811115610bb157610bb06112e3565b5b021790555080600660006101000a81548173ffffffffffffffffffffffffffffffffffffffff021916908373ffffffffffffffffffffffffffffffffffffffff16021790555050565b60006006811115610c0e57610c0d6112e3565b5b600460009054906101000a900460ff166006811115610c3057610c2f6112e3565b5b14610c67576040517fe743c7dc00000000000000000000000000000000000000000000000000000000815260040160405180910390fd5b60008054906101000a900473ffffffffffffffffffffffffffffffffffffffff1673ffffffffffffffffffffffffffffffffffffffff163373ffffffffffffffffffffffffffffffffffffffff1603610cec576040517fd9c8693100000000000000000000000000000000000000000000000000000000815260040160405180910390fd5b60011515600560003373ffffffffffffffffffffffffffffffffffffffff1673ffffffffffffffffffffffffffffffffffffffff16815260200190815260200160002060009054906101000a900460ff16151503610d76576040517f7faa57d400000000000000000000000000000000000000000000000000000000815260040160405180910390fd5b6001600560003373ffffffffffffffffffffffffffffffffffffffff1673ffffffffffffffffffffffffffffffffffffffff16815260200190815260200160002060006101000a81548160ff021916908315150217905550565b60008054906101000a900473ffffffffffffffffffffffffffffffffffffffff1673ffffffffffffffffffffffffffffffffffffffff163373ffffffffffffffffffffffffffffffffffffffff1614610e55576040517fb865db7000000000000000000000000000000000000000000000000000000000815260040160405180910390fd5b60026006811115610e6957610e686112e3565b5b600460009054906101000a900460ff166006811115610e8b57610e8a6112e3565b5b14610edc57600460009054906101000a900460ff166040517f973ba226000000000000000000000000000000000000000000000000000000008152600401610ed3919061135a565b60405180910390fd5b6006600460006101000a81548160ff02191690836006811115610f0257610f016112e3565b5b02179055507f1820008467fc0cf42493c0dc4ebb74b438ff75cd0e7365e13dae3b6a030aca35600660009054906101000a900473ffffffffffffffffffffffffffffffffffffffff168383604051610f5c939291906117b7565b60405180910390a15050565b60038054610f759061182b565b80601f0160208091040260200160405190810160405280929190818152602001828054610fa19061182b565b8015610fee5780601f10610fc357610100808354040283529160200191610fee565b820191906000526020600020905b815481529060010190602001808311610fd157829003601f168201915b505050505081565b600660009054906101000a900473ffffffffffffffffffffffffffffffffffffffff1673ffffffffffffffffffffffffffffffffffffffff163373ffffffffffffffffffffffffffffffffffffffff161461107d576040517f8ce9aa0b00000000000000000000000000000000000000000000000000000000815260040160405180910390fd5b6000600460006101000a81548160ff021916908360068111156110a3576110a26112e3565b5b02179055506000600660006101000a81548173ffffffffffffffffffffffffffffffffffffffff021916908373ffffffffffffffffffffffffffffffffffffffff1602179055506000600560003373ffffffffffffffffffffffffffffffffffffffff1673ffffffffffffffffffffffffffffffffffffffff16815260200190815260200160002060006101000a81548160ff0219169083151502179055507fe871ee8ea724d2a2e048ea20e2636f4eeb1e6fb9fd7d2f5cb23e9e876241f2e160008054906101000a900473ffffffffffffffffffffffffffffffffffffffff168260405161119392919061185c565b60405180910390a150565b60015481565b60008054906101000a900473ffffffffffffffffffffffffffffffffffffffff1681565b60056020528060005260406000206000915054906101000a900460ff1681565b600280546111f59061182b565b80601f01602080910402602001604051908101604052809291908181526020018280546112219061182b565b801561126e5780601f106112435761010080835404028352916020019161126e565b820191906000526020600020905b81548152906001019060200180831161125157829003601f168201915b505050505081565b6000819050919050565b7f4e487b7100000000000000000000000000000000000000000000000000000000600052601160045260246000fd5b60006112ba82611276565b91506112c583611276565b92508282019050808211156112dd576112dc611280565b5b92915050565b7f4e487b7100000000000000000000000000000000000000000000000000000000600052602160045260246000fd5b60078110611323576113226112e3565b5b50565b600081905061133482611312565b919050565b600061134482611326565b9050919050565b61135481611339565b82525050565b600060208201905061136f600083018461134b565b92915050565b600073ffffffffffffffffffffffffffffffffffffffff82169050919050565b60006113a082611375565b9050919050565b6113b081611395565b82525050565b60006020820190506113cb60008301846113a7565b92915050565b6000604051905090565b600080fd5b600080fd5b60006113f082611375565b9050919050565b611400816113e5565b811461140b57600080fd5b50565b60008135905061141d816113f7565b92915050565b600060208284031215611439576114386113db565b5b60006114478482850161140e565b91505092915050565b600080fd5b600080fd5b6000601f19601f8301169050919050565b7f4e487b7100000000000000000000000000000000000000000000000000000000600052604160045260246000fd5b6114a38261145a565b810181811067ffffffffffffffff821117156114c2576114c161146b565b5b80604052505050565b60006114d56113d1565b90506114e1828261149a565b919050565b600067ffffffffffffffff8211156115015761150061146b565b5b61150a8261145a565b9050602081019050919050565b82818337600083830152505050565b6000611539611534846114e6565b6114cb565b90508281526020810184848401111561155557611554611455565b5b611560848285611517565b509392505050565b600082601f83011261157d5761157c611450565b5b813561158d848260208601611526565b91505092915050565b600080604083850312156115ad576115ac6113db565b5b600083013567ffffffffffffffff8111156115cb576115ca6113e0565b5b6115d785828601611568565b925050602083013567ffffffffffffffff8111156115f8576115f76113e0565b5b61160485828601611568565b9150509250929050565b600081519050919050565b600082825260208201905092915050565b60005b8381101561164857808201518184015260208101905061162d565b60008484015250505050565b600061165f8261160e565b6116698185611619565b935061167981856020860161162a565b6116828161145a565b840191505092915050565b600060208201905081810360008301526116a78184611654565b905092915050565b6000602082840312156116c5576116c46113db565b5b600082013567ffffffffffffffff8111156116e3576116e26113e0565b5b6116ef84828501611568565b91505092915050565b61170181611276565b82525050565b600060208201905061171c60008301846116f8565b92915050565b60008115159050919050565b61173781611722565b82525050565b6000602082019050611752600083018461172e565b92915050565b6000819050919050565b600061177d61177861177384611375565b611758565b611375565b9050919050565b600061178f82611762565b9050919050565b60006117a182611784565b9050919050565b6117b181611796565b82525050565b60006060820190506117cc60008301866117a8565b81810360208301526117de8185611654565b905081810360408301526117f28184611654565b9050949350505050565b7f4e487b7100000000000000000000000000000000000000000000000000000000600052602260045260246000fd5b6000600282049050600182168061184357607f821691505b602082108103611856576118556117fc565b5b50919050565b600060408201905061187160008301856117a8565b81810360208301526118838184611654565b9050939250505056fea2646970667358221220ec1aa9510b758991bdf68467ce987d6f356e1dafb37283bb2386544acc8f283064736f6c63430008110033","opcodes":"PUSH1 0x80 PUSH1 0x40 MSTORE PUSH1 0x0 PUSH1 0x4 PUSH1 0x0 PUSH2 0x100 EXP DUP2 SLOAD DUP2 PUSH1 0xFF MUL NOT AND SWAP1 DUP4 PUSH1 0x6 DUP2 GT ISZERO PUSH3 0x2D JUMPI PUSH3 0x2C PUSH3 0xCA JUMP JUMPDEST JUMPDEST MUL OR SWAP1 SSTORE POP PUSH1 0x40 MLOAD PUSH3 0x1F15 CODESIZE SUB DUP1 PUSH3 0x1F15 DUP4 CODECOPY DUP2 DUP2 ADD PUSH1 0x40 MSTORE DUP2 ADD SWAP1 PUSH3 0x57 SWAP2 SWAP1 PUSH3 0x28C JUMP JUMPDEST CALLER PUSH1 0x0 DUP1 PUSH2 0x100 EXP DUP2 SLOAD DUP2 PUSH20 0xFFFFFFFFFFFFFFFFFFFFFFFFFFFFFFFFFFFFFFFF MUL NOT AND SWAP1 DUP4 PUSH20 0xFFFFFFFFFFFFFFFFFFFFFFFFFFFFFFFFFFFFFFFF AND MUL OR SWAP1 SSTORE POP DUP1 PUSH1 0x2 SWAP1 DUP2 PUSH3 0xA8 SWAP2 SWAP1 PUSH3 0x55C JUMP JUMPDEST POP DUP2 PUSH1 0x3 SWAP1 DUP2 PUSH3 0xBA SWAP2 SWAP1 PUSH3 0x55C JUMP JUMPDEST POP CALLVALUE PUSH1 0x1 DUP2 SWAP1 SSTORE POP POP POP PUSH3 0x643 JUMP JUMPDEST PUSH32 0x4E487B7100000000000000000000000000000000000000000000000000000000 PUSH1 0x0 MSTORE PUSH1 0x21 PUSH1 0x4 MSTORE PUSH1 0x24 PUSH1 0x0 REVERT JUMPDEST PUSH1 0x0 PUSH1 0x40 MLOAD SWAP1 POP SWAP1 JUMP JUMPDEST PUSH1 0x0 DUP1 REVERT JUMPDEST PUSH1 0x0 DUP1 REVERT JUMPDEST PUSH1 0x0 DUP1 REVERT JUMPDEST PUSH1 0x0 DUP1 REVERT JUMPDEST PUSH1 0x0 PUSH1 0x1F NOT PUSH1 0x1F DUP4 ADD AND SWAP1 POP SWAP2 SWAP1 POP JUMP JUMPDEST PUSH32 0x4E487B7100000000000000000000000000000000000000000000000000000000 PUSH1 0x0 MSTORE PUSH1 0x41 PUSH1 0x4 MSTORE PUSH1 0x24 PUSH1 0x0 REVERT JUMPDEST PUSH3 0x162 DUP3 PUSH3 0x117 JUMP JUMPDEST DUP2 ADD DUP2 DUP2 LT PUSH8 0xFFFFFFFFFFFFFFFF DUP3 GT OR ISZERO PUSH3 0x184 JUMPI PUSH3 0x183 PUSH3 0x128 JUMP JUMPDEST JUMPDEST DUP1 PUSH1 0x40 MSTORE POP POP POP JUMP JUMPDEST PUSH1 0x0 PUSH3 0x199 PUSH3 0xF9 JUMP JUMPDEST SWAP1 POP PUSH3 0x1A7 DUP3 DUP3 PUSH3 0x157 JUMP JUMPDEST SWAP2 SWAP1 POP JUMP JUMPDEST PUSH1 0x0 PUSH8 0xFFFFFFFFFFFFFFFF DUP3 GT ISZERO PUSH3 0x1CA JUMPI PUSH3 0x1C9 PUSH3 0x128 JUMP JUMPDEST JUMPDEST PUSH3 0x1D5 DUP3 PUSH3 0x117 JUMP JUMPDEST SWAP1 POP PUSH1 0x20 DUP2 ADD SWAP1 POP SWAP2 SWAP1 POP JUMP JUMPDEST PUSH1 0x0 JUMPDEST DUP4 DUP2 LT ISZERO PUSH3 0x202 JUMPI DUP1 DUP3 ADD MLOAD DUP2 DUP5 ADD MSTORE PUSH1 0x20 DUP2 ADD SWAP1 POP PUSH3 0x1E5 JUMP JUMPDEST PUSH1 0x0 DUP5 DUP5 ADD MSTORE POP POP POP POP JUMP JUMPDEST PUSH1 0x0 PUSH3 0x225 PUSH3 0x21F DUP5 PUSH3 0x1AC JUMP JUMPDEST PUSH3 0x18D JUMP JUMPDEST SWAP1 POP DUP3 DUP2 MSTORE PUSH1 0x20 DUP2 ADD DUP5 DUP5 DUP5 ADD GT ISZERO PUSH3 0x244 JUMPI PUSH3 0x243 PUSH3 0x112 JUMP JUMPDEST JUMPDEST PUSH3 0x251 DUP5 DUP3 DUP6 PUSH3 0x1E2 JUMP JUMPDEST POP SWAP4 SWAP3 POP POP POP JUMP JUMPDEST PUSH1 0x0 DUP3 PUSH1 0x1F DUP4 ADD SLT PUSH3 0x271 JUMPI PUSH3 0x270 PUSH3 0x10D JUMP JUMPDEST JUMPDEST DUP2 MLOAD PUSH3 0x283 DUP5 DUP3 PUSH1 0x20 DUP7 ADD PUSH3 0x20E JUMP JUMPDEST SWAP2 POP POP SWAP3 SWAP2 POP POP JUMP JUMPDEST PUSH1 0x0 DUP1 PUSH1 0x40 DUP4 DUP6 SUB SLT ISZERO PUSH3 0x2A6 JUMPI PUSH3 0x2A5 PUSH3 0x103 JUMP JUMPDEST JUMPDEST PUSH1 0x0 DUP4 ADD MLOAD PUSH8 0xFFFFFFFFFFFFFFFF DUP2 GT ISZERO PUSH3 0x2C7 JUMPI PUSH3 0x2C6 PUSH3 0x108 JUMP JUMPDEST JUMPDEST PUSH3 0x2D5 DUP6 DUP3 DUP7 ADD PUSH3 0x259 JUMP JUMPDEST SWAP3 POP POP PUSH1 0x20 DUP4 ADD MLOAD PUSH8 0xFFFFFFFFFFFFFFFF DUP2 GT ISZERO PUSH3 0x2F9 JUMPI PUSH3 0x2F8 PUSH3 0x108 JUMP JUMPDEST JUMPDEST PUSH3 0x307 DUP6 DUP3 DUP7 ADD PUSH3 0x259 JUMP JUMPDEST SWAP2 POP POP SWAP3 POP SWAP3 SWAP1 POP JUMP JUMPDEST PUSH1 0x0 DUP2 MLOAD SWAP1 POP SWAP2 SWAP1 POP JUMP JUMPDEST PUSH32 0x4E487B7100000000000000000000000000000000000000000000000000000000 PUSH1 0x0 MSTORE PUSH1 0x22 PUSH1 0x4 MSTORE PUSH1 0x24 PUSH1 0x0 REVERT JUMPDEST PUSH1 0x0 PUSH1 0x2 DUP3 DIV SWAP1 POP PUSH1 0x1 DUP3 AND DUP1 PUSH3 0x364 JUMPI PUSH1 0x7F DUP3 AND SWAP2 POP JUMPDEST PUSH1 0x20 DUP3 LT DUP2 SUB PUSH3 0x37A JUMPI PUSH3 0x379 PUSH3 0x31C JUMP JUMPDEST JUMPDEST POP SWAP2 SWAP1 POP JUMP JUMPDEST PUSH1 0x0 DUP2 SWAP1 POP DUP2 PUSH1 0x0 MSTORE PUSH1 0x20 PUSH1 0x0 KECCAK256 SWAP1 POP SWAP2 SWAP1 POP JUMP JUMPDEST PUSH1 0x0 PUSH1 0x20 PUSH1 0x1F DUP4 ADD DIV SWAP1 POP SWAP2 SWAP1 POP JUMP JUMPDEST PUSH1 0x0 DUP3 DUP3 SHL SWAP1 POP SWAP3 SWAP2 POP POP JUMP JUMPDEST PUSH1 0x0 PUSH1 0x8 DUP4 MUL PUSH3 0x3E4 PUSH32 0xFFFFFFFFFFFFFFFFFFFFFFFFFFFFFFFFFFFFFFFFFFFFFFFFFFFFFFFFFFFFFFFF DUP3 PUSH3 0x3A5 JUMP JUMPDEST PUSH3 0x3F0 DUP7 DUP4 PUSH3 0x3A5 JUMP JUMPDEST SWAP6 POP DUP1 NOT DUP5 AND SWAP4 POP DUP1 DUP7 AND DUP5 OR SWAP3 POP POP POP SWAP4 SWAP3 POP POP POP JUMP JUMPDEST PUSH1 0x0 DUP2 SWAP1 POP SWAP2 SWAP1 POP JUMP JUMPDEST PUSH1 0x0 DUP2 SWAP1 POP SWAP2 SWAP1 POP JUMP JUMPDEST PUSH1 0x0 PUSH3 0x43D PUSH3 0x437 PUSH3 0x431 DUP5 PUSH3 0x408 JUMP JUMPDEST PUSH3 0x412 JUMP JUMPDEST PUSH3 0x408 JUMP JUMPDEST SWAP1 POP SWAP2 SWAP1 POP JUMP JUMPDEST PUSH1 0x0 DUP2 SWAP1 POP SWAP2 SWAP1 POP JUMP JUMPDEST PUSH3 0x459 DUP4 PUSH3 0x41C JUMP JUMPDEST PUSH3 0x471 PUSH3 0x468 DUP3 PUSH3 0x444 JUMP JUMPDEST DUP5 DUP5 SLOAD PUSH3 0x3B2 JUMP JUMPDEST DUP3 SSTORE POP POP POP POP JUMP JUMPDEST PUSH1 0x0 SWAP1 JUMP JUMPDEST PUSH3 0x488 PUSH3 0x479 JUMP JUMPDEST PUSH3 0x495 DUP2 DUP5 DUP5 PUSH3 0x44E JUMP JUMPDEST POP POP POP JUMP JUMPDEST JUMPDEST DUP2 DUP2 LT ISZERO PUSH3 0x4BD JUMPI PUSH3 0x4B1 PUSH1 0x0 DUP3 PUSH3 0x47E JUMP JUMPDEST PUSH1 0x1 DUP2 ADD SWAP1 POP PUSH3 0x49B JUMP JUMPDEST POP POP JUMP JUMPDEST PUSH1 0x1F DUP3 GT ISZERO PUSH3 0x50C JUMPI PUSH3 0x4D6 DUP2 PUSH3 0x380 JUMP JUMPDEST PUSH3 0x4E1 DUP5 PUSH3 0x395 JUMP JUMPDEST DUP2 ADD PUSH1 0x20 DUP6 LT ISZERO PUSH3 0x4F1 JUMPI DUP2 SWAP1 POP JUMPDEST PUSH3 0x509 PUSH3 0x500 DUP6 PUSH3 0x395 JUMP JUMPDEST DUP4 ADD DUP3 PUSH3 0x49A JUMP JUMPDEST POP POP JUMPDEST POP POP POP JUMP JUMPDEST PUSH1 0x0 DUP3 DUP3 SHR SWAP1 POP SWAP3 SWAP2 POP POP JUMP JUMPDEST PUSH1 0x0 PUSH3 0x531 PUSH1 0x0 NOT DUP5 PUSH1 0x8 MUL PUSH3 0x511 JUMP JUMPDEST NOT DUP1 DUP4 AND SWAP2 POP POP SWAP3 SWAP2 POP POP JUMP JUMPDEST PUSH1 0x0 PUSH3 0x54C DUP4 DUP4 PUSH3 0x51E JUMP JUMPDEST SWAP2 POP DUP3 PUSH1 0x2 MUL DUP3 OR SWAP1 POP SWAP3 SWAP2 POP POP JUMP JUMPDEST PUSH3 0x567 DUP3 PUSH3 0x311 JUMP JUMPDEST PUSH8 0xFFFFFFFFFFFFFFFF DUP2 GT ISZERO PUSH3 0x583 JUMPI PUSH3 0x582 PUSH3 0x128 JUMP JUMPDEST JUMPDEST PUSH3 0x58F DUP3 SLOAD PUSH3 0x34B JUMP JUMPDEST PUSH3 0x59C DUP3 DUP3 DUP6 PUSH3 0x4C1 JUMP JUMPDEST PUSH1 0x0 PUSH1 0x20 SWAP1 POP PUSH1 0x1F DUP4 GT PUSH1 0x1 DUP2 EQ PUSH3 0x5D4 JUMPI PUSH1 0x0 DUP5 ISZERO PUSH3 0x5BF JUMPI DUP3 DUP8 ADD MLOAD SWAP1 POP JUMPDEST PUSH3 0x5CB DUP6 DUP3 PUSH3 0x53E JUMP JUMPDEST DUP7 SSTORE POP PUSH3 0x63B JUMP JUMPDEST PUSH1 0x1F NOT DUP5 AND PUSH3 0x5E4 DUP7 PUSH3 0x380 JUMP JUMPDEST PUSH1 0x0 JUMPDEST DUP3 DUP2 LT ISZERO PUSH3 0x60E JUMPI DUP5 DUP10 ADD MLOAD DUP3 SSTORE PUSH1 0x1 DUP3 ADD SWAP2 POP PUSH1 0x20 DUP6 ADD SWAP5 POP PUSH1 0x20 DUP2 ADD SWAP1 POP PUSH3 0x5E7 JUMP JUMPDEST DUP7 DUP4 LT ISZERO PUSH3 0x62E JUMPI DUP5 DUP10 ADD MLOAD PUSH3 0x62A PUSH1 0x1F DUP10 AND DUP3 PUSH3 0x51E JUMP JUMPDEST DUP4 SSTORE POP JUMPDEST PUSH1 0x1 PUSH1 0x2 DUP9 MUL ADD DUP9 SSTORE POP POP POP JUMPDEST POP POP POP POP POP POP JUMP JUMPDEST PUSH2 0x18C2 DUP1 PUSH3 0x653 PUSH1 0x0 CODECOPY PUSH1 0x0 RETURN INVALID PUSH1 0x80 PUSH1 0x40 MSTORE PUSH1 0x4 CALLDATASIZE LT PUSH2 0xEB JUMPI PUSH1 0x0 CALLDATALOAD PUSH1 0xE0 SHR DUP1 PUSH4 0x54BF4BC3 GT PUSH2 0x8A JUMPI DUP1 PUSH4 0xAE1EE533 GT PUSH2 0x59 JUMPI DUP1 PUSH4 0xAE1EE533 EQ PUSH2 0x27E JUMPI DUP1 PUSH4 0xAE200E79 EQ PUSH2 0x2A9 JUMPI DUP1 PUSH4 0xE7793E37 EQ PUSH2 0x2D4 JUMPI DUP1 PUSH4 0xF5C743F4 EQ PUSH2 0x311 JUMPI PUSH2 0x10A JUMP JUMPDEST DUP1 PUSH4 0x54BF4BC3 EQ PUSH2 0x1EA JUMPI DUP1 PUSH4 0x58959BA1 EQ PUSH2 0x201 JUMPI DUP1 PUSH4 0x9B37E0C3 EQ PUSH2 0x22A JUMPI DUP1 PUSH4 0xA26616AA EQ PUSH2 0x255 JUMPI PUSH2 0x10A JUMP JUMPDEST DUP1 PUSH4 0x33F17420 GT PUSH2 0xC6 JUMPI DUP1 PUSH4 0x33F17420 EQ PUSH2 0x168 JUMPI DUP1 PUSH4 0x43BB8DB5 EQ PUSH2 0x193 JUMPI DUP1 PUSH4 0x4A45110B EQ PUSH2 0x1AA JUMPI DUP1 PUSH4 0x4BF576CC EQ PUSH2 0x1C1 JUMPI PUSH2 0x10A JUMP JUMPDEST DUP1 PUSH3 0x6A2590 EQ PUSH2 0x10F JUMPI DUP1 PUSH4 0x1FF70522 EQ PUSH2 0x126 JUMPI DUP1 PUSH4 0x200D2ED2 EQ PUSH2 0x13D JUMPI PUSH2 0x10A JUMP JUMPDEST CALLDATASIZE PUSH2 0x10A JUMPI CALLVALUE PUSH1 0x1 PUSH1 0x0 DUP3 DUP3 SLOAD PUSH2 0x102 SWAP2 SWAP1 PUSH2 0x12AF JUMP JUMPDEST SWAP3 POP POP DUP2 SWAP1 SSTORE STOP JUMPDEST PUSH1 0x0 DUP1 REVERT JUMPDEST CALLVALUE DUP1 ISZERO PUSH2 0x11B JUMPI PUSH1 0x0 DUP1 REVERT JUMPDEST POP PUSH2 0x124 PUSH2 0x33C JUMP JUMPDEST STOP JUMPDEST CALLVALUE DUP1 ISZERO PUSH2 0x132 JUMPI PUSH1 0x0 DUP1 REVERT JUMPDEST POP PUSH2 0x13B PUSH2 0x512 JUMP JUMPDEST STOP JUMPDEST CALLVALUE DUP1 ISZERO PUSH2 0x149 JUMPI PUSH1 0x0 DUP1 REVERT JUMPDEST POP PUSH2 0x152 PUSH2 0x633 JUMP JUMPDEST PUSH1 0x40 MLOAD PUSH2 0x15F SWAP2 SWAP1 PUSH2 0x135A JUMP JUMPDEST PUSH1 0x40 MLOAD DUP1 SWAP2 SUB SWAP1 RETURN JUMPDEST CALLVALUE DUP1 ISZERO PUSH2 0x174 JUMPI PUSH1 0x0 DUP1 REVERT JUMPDEST POP PUSH2 0x17D PUSH2 0x646 JUMP JUMPDEST PUSH1 0x40 MLOAD PUSH2 0x18A SWAP2 SWAP1 PUSH2 0x13B6 JUMP JUMPDEST PUSH1 0x40 MLOAD DUP1 SWAP2 SUB SWAP1 RETURN JUMPDEST CALLVALUE DUP1 ISZERO PUSH2 0x19F JUMPI PUSH1 0x0 DUP1 REVERT JUMPDEST POP PUSH2 0x1A8 PUSH2 0x66C JUMP JUMPDEST STOP JUMPDEST CALLVALUE DUP1 ISZERO PUSH2 0x1B6 JUMPI PUSH1 0x0 DUP1 REVERT JUMPDEST POP PUSH2 0x1BF PUSH2 0x82E JUMP JUMPDEST STOP JUMPDEST CALLVALUE DUP1 ISZERO PUSH2 0x1CD JUMPI PUSH1 0x0 DUP1 REVERT JUMPDEST POP PUSH2 0x1E8 PUSH1 0x4 DUP1 CALLDATASIZE SUB DUP2 ADD SWAP1 PUSH2 0x1E3 SWAP2 SWAP1 PUSH2 0x1423 JUMP JUMPDEST PUSH2 0x991 JUMP JUMPDEST STOP JUMPDEST CALLVALUE DUP1 ISZERO PUSH2 0x1F6 JUMPI PUSH1 0x0 DUP1 REVERT JUMPDEST POP PUSH2 0x1FF PUSH2 0xBFA JUMP JUMPDEST STOP JUMPDEST CALLVALUE DUP1 ISZERO PUSH2 0x20D JUMPI PUSH1 0x0 DUP1 REVERT JUMPDEST POP PUSH2 0x228 PUSH1 0x4 DUP1 CALLDATASIZE SUB DUP2 ADD SWAP1 PUSH2 0x223 SWAP2 SWAP1 PUSH2 0x1596 JUMP JUMPDEST PUSH2 0xDD0 JUMP JUMPDEST STOP JUMPDEST CALLVALUE DUP1 ISZERO PUSH2 0x236 JUMPI PUSH1 0x0 DUP1 REVERT JUMPDEST POP PUSH2 0x23F PUSH2 0xF68 JUMP JUMPDEST PUSH1 0x40 MLOAD PUSH2 0x24C SWAP2 SWAP1 PUSH2 0x168D JUMP JUMPDEST PUSH1 0x40 MLOAD DUP1 SWAP2 SUB SWAP1 RETURN JUMPDEST CALLVALUE DUP1 ISZERO PUSH2 0x261 JUMPI PUSH1 0x0 DUP1 REVERT JUMPDEST POP PUSH2 0x27C PUSH1 0x4 DUP1 CALLDATASIZE SUB DUP2 ADD SWAP1 PUSH2 0x277 SWAP2 SWAP1 PUSH2 0x16AF JUMP JUMPDEST PUSH2 0xFF6 JUMP JUMPDEST STOP JUMPDEST CALLVALUE DUP1 ISZERO PUSH2 0x28A JUMPI PUSH1 0x0 DUP1 REVERT JUMPDEST POP PUSH2 0x293 PUSH2 0x119E JUMP JUMPDEST PUSH1 0x40 MLOAD PUSH2 0x2A0 SWAP2 SWAP1 PUSH2 0x1707 JUMP JUMPDEST PUSH1 0x40 MLOAD DUP1 SWAP2 SUB SWAP1 RETURN JUMPDEST CALLVALUE DUP1 ISZERO PUSH2 0x2B5 JUMPI PUSH1 0x0 DUP1 REVERT JUMPDEST POP PUSH2 0x2BE PUSH2 0x11A4 JUMP JUMPDEST PUSH1 0x40 MLOAD PUSH2 0x2CB SWAP2 SWAP1 PUSH2 0x13B6 JUMP JUMPDEST PUSH1 0x40 MLOAD DUP1 SWAP2 SUB SWAP1 RETURN JUMPDEST CALLVALUE DUP1 ISZERO PUSH2 0x2E0 JUMPI PUSH1 0x0 DUP1 REVERT JUMPDEST POP PUSH2 0x2FB PUSH1 0x4 DUP1 CALLDATASIZE SUB DUP2 ADD SWAP1 PUSH2 0x2F6 SWAP2 SWAP1 PUSH2 0x1423 JUMP JUMPDEST PUSH2 0x11C8 JUMP JUMPDEST PUSH1 0x40 MLOAD PUSH2 0x308 SWAP2 SWAP1 PUSH2 0x173D JUMP JUMPDEST PUSH1 0x40 MLOAD DUP1 SWAP2 SUB SWAP1 RETURN JUMPDEST CALLVALUE DUP1 ISZERO PUSH2 0x31D JUMPI PUSH1 0x0 DUP1 REVERT JUMPDEST POP PUSH2 0x326 PUSH2 0x11E8 JUMP JUMPDEST PUSH1 0x40 MLOAD PUSH2 0x333 SWAP2 SWAP1 PUSH2 0x168D JUMP JUMPDEST PUSH1 0x40 MLOAD DUP1 SWAP2 SUB SWAP1 RETURN JUMPDEST PUSH1 0x0 PUSH1 0x6 DUP2 GT ISZERO PUSH2 0x350 JUMPI PUSH2 0x34F PUSH2 0x12E3 JUMP JUMPDEST JUMPDEST PUSH1 0x4 PUSH1 0x0 SWAP1 SLOAD SWAP1 PUSH2 0x100 EXP SWAP1 DIV PUSH1 0xFF AND PUSH1 0x6 DUP2 GT ISZERO PUSH2 0x372 JUMPI PUSH2 0x371 PUSH2 0x12E3 JUMP JUMPDEST JUMPDEST EQ PUSH2 0x3A9 JUMPI PUSH1 0x40 MLOAD PUSH32 0xE743C7DC00000000000000000000000000000000000000000000000000000000 DUP2 MSTORE PUSH1 0x4 ADD PUSH1 0x40 MLOAD DUP1 SWAP2 SUB SWAP1 REVERT JUMPDEST PUSH1 0x0 DUP1 SLOAD SWAP1 PUSH2 0x100 EXP SWAP1 DIV PUSH20 0xFFFFFFFFFFFFFFFFFFFFFFFFFFFFFFFFFFFFFFFF AND PUSH20 0xFFFFFFFFFFFFFFFFFFFFFFFFFFFFFFFFFFFFFFFF AND CALLER PUSH20 0xFFFFFFFFFFFFFFFFFFFFFFFFFFFFFFFFFFFFFFFF AND SUB PUSH2 0x42E JUMPI PUSH1 0x40 MLOAD PUSH32 0xD9C8693100000000000000000000000000000000000000000000000000000000 DUP2 MSTORE PUSH1 0x4 ADD PUSH1 0x40 MLOAD DUP1 SWAP2 SUB SWAP1 REVERT JUMPDEST PUSH1 0x0 ISZERO ISZERO PUSH1 0x5 PUSH1 0x0 CALLER PUSH20 0xFFFFFFFFFFFFFFFFFFFFFFFFFFFFFFFFFFFFFFFF AND PUSH20 0xFFFFFFFFFFFFFFFFFFFFFFFFFFFFFFFFFFFFFFFF AND DUP2 MSTORE PUSH1 0x20 ADD SWAP1 DUP2 MSTORE PUSH1 0x20 ADD PUSH1 0x0 KECCAK256 PUSH1 0x0 SWAP1 SLOAD SWAP1 PUSH2 0x100 EXP SWAP1 DIV PUSH1 0xFF AND ISZERO ISZERO SUB PUSH2 0x4B8 JUMPI PUSH1 0x40 MLOAD PUSH32 0x1C98F22100000000000000000000000000000000000000000000000000000000 DUP2 MSTORE PUSH1 0x4 ADD PUSH1 0x40 MLOAD DUP1 SWAP2 SUB SWAP1 REVERT JUMPDEST PUSH1 0x0 PUSH1 0x5 PUSH1 0x0 CALLER PUSH20 0xFFFFFFFFFFFFFFFFFFFFFFFFFFFFFFFFFFFFFFFF AND PUSH20 0xFFFFFFFFFFFFFFFFFFFFFFFFFFFFFFFFFFFFFFFF AND DUP2 MSTORE PUSH1 0x20 ADD SWAP1 DUP2 MSTORE PUSH1 0x20 ADD PUSH1 0x0 KECCAK256 PUSH1 0x0 PUSH2 0x100 EXP DUP2 SLOAD DUP2 PUSH1 0xFF MUL NOT AND SWAP1 DUP4 ISZERO ISZERO MUL OR SWAP1 SSTORE POP JUMP JUMPDEST PUSH1 0x6 PUSH1 0x0 SWAP1 SLOAD SWAP1 PUSH2 0x100 EXP SWAP1 DIV PUSH20 0xFFFFFFFFFFFFFFFFFFFFFFFFFFFFFFFFFFFFFFFF AND PUSH20 0xFFFFFFFFFFFFFFFFFFFFFFFFFFFFFFFFFFFFFFFF AND CALLER PUSH20 0xFFFFFFFFFFFFFFFFFFFFFFFFFFFFFFFFFFFFFFFF AND EQ PUSH2 0x599 JUMPI PUSH1 0x40 MLOAD PUSH32 0x8CE9AA0B00000000000000000000000000000000000000000000000000000000 DUP2 MSTORE PUSH1 0x4 ADD PUSH1 0x40 MLOAD DUP1 SWAP2 SUB SWAP1 REVERT JUMPDEST PUSH1 0x1 PUSH1 0x6 DUP2 GT ISZERO PUSH2 0x5AD JUMPI PUSH2 0x5AC PUSH2 0x12E3 JUMP JUMPDEST JUMPDEST PUSH1 0x4 PUSH1 0x0 SWAP1 SLOAD SWAP1 PUSH2 0x100 EXP SWAP1 DIV PUSH1 0xFF AND PUSH1 0x6 DUP2 GT ISZERO PUSH2 0x5CF JUMPI PUSH2 0x5CE PUSH2 0x12E3 JUMP JUMPDEST JUMPDEST EQ PUSH2 0x606 JUMPI PUSH1 0x40 MLOAD PUSH32 0x4B372CD100000000000000000000000000000000000000000000000000000000 DUP2 MSTORE PUSH1 0x4 ADD PUSH1 0x40 MLOAD DUP1 SWAP2 SUB SWAP1 REVERT JUMPDEST PUSH1 0x2 PUSH1 0x4 PUSH1 0x0 PUSH2 0x100 EXP DUP2 SLOAD DUP2 PUSH1 0xFF MUL NOT AND SWAP1 DUP4 PUSH1 0x6 DUP2 GT ISZERO PUSH2 0x62C JUMPI PUSH2 0x62B PUSH2 0x12E3 JUMP JUMPDEST JUMPDEST MUL OR SWAP1 SSTORE POP JUMP JUMPDEST PUSH1 0x4 PUSH1 0x0 SWAP1 SLOAD SWAP1 PUSH2 0x100 EXP SWAP1 DIV PUSH1 0xFF AND DUP2 JUMP JUMPDEST PUSH1 0x6 PUSH1 0x0 SWAP1 SLOAD SWAP1 PUSH2 0x100 EXP SWAP1 DIV PUSH20 0xFFFFFFFFFFFFFFFFFFFFFFFFFFFFFFFFFFFFFFFF AND DUP2 JUMP JUMPDEST PUSH1 0x0 DUP1 SLOAD SWAP1 PUSH2 0x100 EXP SWAP1 DIV PUSH20 0xFFFFFFFFFFFFFFFFFFFFFFFFFFFFFFFFFFFFFFFF AND PUSH20 0xFFFFFFFFFFFFFFFFFFFFFFFFFFFFFFFFFFFFFFFF AND CALLER PUSH20 0xFFFFFFFFFFFFFFFFFFFFFFFFFFFFFFFFFFFFFFFF AND EQ PUSH2 0x6F1 JUMPI PUSH1 0x40 MLOAD PUSH32 0xB865DB7000000000000000000000000000000000000000000000000000000000 DUP2 MSTORE PUSH1 0x4 ADD PUSH1 0x40 MLOAD DUP1 SWAP2 SUB SWAP1 REVERT JUMPDEST PUSH1 0x2 PUSH1 0x6 DUP2 GT ISZERO PUSH2 0x705 JUMPI PUSH2 0x704 PUSH2 0x12E3 JUMP JUMPDEST JUMPDEST PUSH1 0x4 PUSH1 0x0 SWAP1 SLOAD SWAP1 PUSH2 0x100 EXP SWAP1 DIV PUSH1 0xFF AND PUSH1 0x6 DUP2 GT ISZERO PUSH2 0x727 JUMPI PUSH2 0x726 PUSH2 0x12E3 JUMP JUMPDEST JUMPDEST EQ PUSH2 0x75E JUMPI PUSH1 0x40 MLOAD PUSH32 0xC015B61F00000000000000000000000000000000000000000000000000000000 DUP2 MSTORE PUSH1 0x4 ADD PUSH1 0x40 MLOAD DUP1 SWAP2 SUB SWAP1 REVERT JUMPDEST PUSH1 0x4 DUP1 PUSH1 0x0 PUSH2 0x100 EXP DUP2 SLOAD DUP2 PUSH1 0xFF MUL NOT AND SWAP1 DUP4 PUSH1 0x6 DUP2 GT ISZERO PUSH2 0x783 JUMPI PUSH2 0x782 PUSH2 0x12E3 JUMP JUMPDEST JUMPDEST MUL OR SWAP1 SSTORE POP PUSH1 0x6 PUSH1 0x0 SWAP1 SLOAD SWAP1 PUSH2 0x100 EXP SWAP1 DIV PUSH20 0xFFFFFFFFFFFFFFFFFFFFFFFFFFFFFFFFFFFFFFFF AND PUSH20 0xFFFFFFFFFFFFFFFFFFFFFFFFFFFFFFFFFFFFFFFF AND PUSH2 0x8FC PUSH1 0x1 SLOAD SWAP1 DUP2 ISZERO MUL SWAP1 PUSH1 0x40 MLOAD PUSH1 0x0 PUSH1 0x40 MLOAD DUP1 DUP4 SUB DUP2 DUP6 DUP9 DUP9 CALL SWAP4 POP POP POP POP ISZERO DUP1 ISZERO PUSH2 0x7F2 JUMPI RETURNDATASIZE PUSH1 0x0 DUP1 RETURNDATACOPY RETURNDATASIZE PUSH1 0x0 REVERT JUMPDEST POP PUSH1 0x6 PUSH1 0x0 SWAP1 SLOAD SWAP1 PUSH2 0x100 EXP SWAP1 DIV PUSH20 0xFFFFFFFFFFFFFFFFFFFFFFFFFFFFFFFFFFFFFFFF AND PUSH20 0xFFFFFFFFFFFFFFFFFFFFFFFFFFFFFFFFFFFFFFFF AND SELFDESTRUCT JUMPDEST PUSH1 0x0 DUP1 SLOAD SWAP1 PUSH2 0x100 EXP SWAP1 DIV PUSH20 0xFFFFFFFFFFFFFFFFFFFFFFFFFFFFFFFFFFFFFFFF AND PUSH20 0xFFFFFFFFFFFFFFFFFFFFFFFFFFFFFFFFFFFFFFFF AND CALLER PUSH20 0xFFFFFFFFFFFFFFFFFFFFFFFFFFFFFFFFFFFFFFFF AND EQ PUSH2 0x8B3 JUMPI PUSH1 0x40 MLOAD PUSH32 0xB865DB7000000000000000000000000000000000000000000000000000000000 DUP2 MSTORE PUSH1 0x4 ADD PUSH1 0x40 MLOAD DUP1 SWAP2 SUB SWAP1 REVERT JUMPDEST PUSH1 0x0 PUSH1 0x6 DUP2 GT ISZERO PUSH2 0x8C7 JUMPI PUSH2 0x8C6 PUSH2 0x12E3 JUMP JUMPDEST JUMPDEST PUSH1 0x4 PUSH1 0x0 SWAP1 SLOAD SWAP1 PUSH2 0x100 EXP SWAP1 DIV PUSH1 0xFF AND PUSH1 0x6 DUP2 GT ISZERO PUSH2 0x8E9 JUMPI PUSH2 0x8E8 PUSH2 0x12E3 JUMP JUMPDEST JUMPDEST EQ PUSH2 0x920 JUMPI PUSH1 0x40 MLOAD PUSH32 0x40BAA63500000000000000000000000000000000000000000000000000000000 DUP2 MSTORE PUSH1 0x4 ADD PUSH1 0x40 MLOAD DUP1 SWAP2 SUB SWAP1 REVERT JUMPDEST PUSH1 0x3 PUSH1 0x6 DUP2 GT ISZERO PUSH2 0x934 JUMPI PUSH2 0x933 PUSH2 0x12E3 JUMP JUMPDEST JUMPDEST PUSH1 0x4 PUSH1 0x0 SWAP1 SLOAD SWAP1 PUSH2 0x100 EXP SWAP1 DIV PUSH1 0xFF AND PUSH1 0x6 DUP2 GT ISZERO PUSH2 0x956 JUMPI PUSH2 0x955 PUSH2 0x12E3 JUMP JUMPDEST JUMPDEST POP POP PUSH1 0x0 DUP1 SLOAD SWAP1 PUSH2 0x100 EXP SWAP1 DIV PUSH20 0xFFFFFFFFFFFFFFFFFFFFFFFFFFFFFFFFFFFFFFFF AND PUSH20 0xFFFFFFFFFFFFFFFFFFFFFFFFFFFFFFFFFFFFFFFF AND SELFDESTRUCT JUMPDEST PUSH1 0x0 DUP1 SLOAD SWAP1 PUSH2 0x100 EXP SWAP1 DIV PUSH20 0xFFFFFFFFFFFFFFFFFFFFFFFFFFFFFFFFFFFFFFFF AND PUSH20 0xFFFFFFFFFFFFFFFFFFFFFFFFFFFFFFFFFFFFFFFF AND CALLER PUSH20 0xFFFFFFFFFFFFFFFFFFFFFFFFFFFFFFFFFFFFFFFF AND EQ PUSH2 0xA16 JUMPI PUSH1 0x40 MLOAD PUSH32 0xB865DB7000000000000000000000000000000000000000000000000000000000 DUP2 MSTORE PUSH1 0x4 ADD PUSH1 0x40 MLOAD DUP1 SWAP2 SUB SWAP1 REVERT JUMPDEST PUSH1 0x0 PUSH1 0x6 DUP2 GT ISZERO PUSH2 0xA2A JUMPI PUSH2 0xA29 PUSH2 0x12E3 JUMP JUMPDEST JUMPDEST PUSH1 0x4 PUSH1 0x0 SWAP1 SLOAD SWAP1 PUSH2 0x100 EXP SWAP1 DIV PUSH1 0xFF AND PUSH1 0x6 DUP2 GT ISZERO PUSH2 0xA4C JUMPI PUSH2 0xA4B PUSH2 0x12E3 JUMP JUMPDEST JUMPDEST EQ PUSH2 0xA83 JUMPI PUSH1 0x40 MLOAD PUSH32 0xE743C7DC00000000000000000000000000000000000000000000000000000000 DUP2 MSTORE PUSH1 0x4 ADD PUSH1 0x40 MLOAD DUP1 SWAP2 SUB SWAP1 REVERT JUMPDEST PUSH1 0x0 DUP1 SLOAD SWAP1 PUSH2 0x100 EXP SWAP1 DIV PUSH20 0xFFFFFFFFFFFFFFFFFFFFFFFFFFFFFFFFFFFFFFFF AND PUSH20 0xFFFFFFFFFFFFFFFFFFFFFFFFFFFFFFFFFFFFFFFF AND DUP2 PUSH20 0xFFFFFFFFFFFFFFFFFFFFFFFFFFFFFFFFFFFFFFFF AND SUB PUSH2 0xB08 JUMPI PUSH1 0x40 MLOAD PUSH32 0xD9C8693100000000000000000000000000000000000000000000000000000000 DUP2 MSTORE PUSH1 0x4 ADD PUSH1 0x40 MLOAD DUP1 SWAP2 SUB SWAP1 REVERT JUMPDEST PUSH1 0x5 PUSH1 0x0 DUP3 PUSH20 0xFFFFFFFFFFFFFFFFFFFFFFFFFFFFFFFFFFFFFFFF AND PUSH20 0xFFFFFFFFFFFFFFFFFFFFFFFFFFFFFFFFFFFFFFFF AND DUP2 MSTORE PUSH1 0x20 ADD SWAP1 DUP2 MSTORE PUSH1 0x20 ADD PUSH1 0x0 KECCAK256 PUSH1 0x0 SWAP1 SLOAD SWAP1 PUSH2 0x100 EXP SWAP1 DIV PUSH1 0xFF AND PUSH2 0xB8B JUMPI PUSH1 0x40 MLOAD PUSH32 0x1C98F22100000000000000000000000000000000000000000000000000000000 DUP2 MSTORE PUSH1 0x4 ADD PUSH1 0x40 MLOAD DUP1 SWAP2 SUB SWAP1 REVERT JUMPDEST PUSH1 0x1 PUSH1 0x4 PUSH1 0x0 PUSH2 0x100 EXP DUP2 SLOAD DUP2 PUSH1 0xFF MUL NOT AND SWAP1 DUP4 PUSH1 0x6 DUP2 GT ISZERO PUSH2 0xBB1 JUMPI PUSH2 0xBB0 PUSH2 0x12E3 JUMP JUMPDEST JUMPDEST MUL OR SWAP1 SSTORE POP DUP1 PUSH1 0x6 PUSH1 0x0 PUSH2 0x100 EXP DUP2 SLOAD DUP2 PUSH20 0xFFFFFFFFFFFFFFFFFFFFFFFFFFFFFFFFFFFFFFFF MUL NOT AND SWAP1 DUP4 PUSH20 0xFFFFFFFFFFFFFFFFFFFFFFFFFFFFFFFFFFFFFFFF AND MUL OR SWAP1 SSTORE POP POP JUMP JUMPDEST PUSH1 0x0 PUSH1 0x6 DUP2 GT ISZERO PUSH2 0xC0E JUMPI PUSH2 0xC0D PUSH2 0x12E3 JUMP JUMPDEST JUMPDEST PUSH1 0x4 PUSH1 0x0 SWAP1 SLOAD SWAP1 PUSH2 0x100 EXP SWAP1 DIV PUSH1 0xFF AND PUSH1 0x6 DUP2 GT ISZERO PUSH2 0xC30 JUMPI PUSH2 0xC2F PUSH2 0x12E3 JUMP JUMPDEST JUMPDEST EQ PUSH2 0xC67 JUMPI PUSH1 0x40 MLOAD PUSH32 0xE743C7DC00000000000000000000000000000000000000000000000000000000 DUP2 MSTORE PUSH1 0x4 ADD PUSH1 0x40 MLOAD DUP1 SWAP2 SUB SWAP1 REVERT JUMPDEST PUSH1 0x0 DUP1 SLOAD SWAP1 PUSH2 0x100 EXP SWAP1 DIV PUSH20 0xFFFFFFFFFFFFFFFFFFFFFFFFFFFFFFFFFFFFFFFF AND PUSH20 0xFFFFFFFFFFFFFFFFFFFFFFFFFFFFFFFFFFFFFFFF AND CALLER PUSH20 0xFFFFFFFFFFFFFFFFFFFFFFFFFFFFFFFFFFFFFFFF AND SUB PUSH2 0xCEC JUMPI PUSH1 0x40 MLOAD PUSH32 0xD9C8693100000000000000000000000000000000000000000000000000000000 DUP2 MSTORE PUSH1 0x4 ADD PUSH1 0x40 MLOAD DUP1 SWAP2 SUB SWAP1 REVERT JUMPDEST PUSH1 0x1 ISZERO ISZERO PUSH1 0x5 PUSH1 0x0 CALLER PUSH20 0xFFFFFFFFFFFFFFFFFFFFFFFFFFFFFFFFFFFFFFFF AND PUSH20 0xFFFFFFFFFFFFFFFFFFFFFFFFFFFFFFFFFFFFFFFF AND DUP2 MSTORE PUSH1 0x20 ADD SWAP1 DUP2 MSTORE PUSH1 0x20 ADD PUSH1 0x0 KECCAK256 PUSH1 0x0 SWAP1 SLOAD SWAP1 PUSH2 0x100 EXP SWAP1 DIV PUSH1 0xFF AND ISZERO ISZERO SUB PUSH2 0xD76 JUMPI PUSH1 0x40 MLOAD PUSH32 0x7FAA57D400000000000000000000000000000000000000000000000000000000 DUP2 MSTORE PUSH1 0x4 ADD PUSH1 0x40 MLOAD DUP1 SWAP2 SUB SWAP1 REVERT JUMPDEST PUSH1 0x1 PUSH1 0x5 PUSH1 0x0 CALLER PUSH20 0xFFFFFFFFFFFFFFFFFFFFFFFFFFFFFFFFFFFFFFFF AND PUSH20 0xFFFFFFFFFFFFFFFFFFFFFFFFFFFFFFFFFFFFFFFF AND DUP2 MSTORE PUSH1 0x20 ADD SWAP1 DUP2 MSTORE PUSH1 0x20 ADD PUSH1 0x0 KECCAK256 PUSH1 0x0 PUSH2 0x100 EXP DUP2 SLOAD DUP2 PUSH1 0xFF MUL NOT AND SWAP1 DUP4 ISZERO ISZERO MUL OR SWAP1 SSTORE POP JUMP JUMPDEST PUSH1 0x0 DUP1 SLOAD SWAP1 PUSH2 0x100 EXP SWAP1 DIV PUSH20 0xFFFFFFFFFFFFFFFFFFFFFFFFFFFFFFFFFFFFFFFF AND PUSH20 0xFFFFFFFFFFFFFFFFFFFFFFFFFFFFFFFFFFFFFFFF AND CALLER PUSH20 0xFFFFFFFFFFFFFFFFFFFFFFFFFFFFFFFFFFFFFFFF AND EQ PUSH2 0xE55 JUMPI PUSH1 0x40 MLOAD PUSH32 0xB865DB7000000000000000000000000000000000000000000000000000000000 DUP2 MSTORE PUSH1 0x4 ADD PUSH1 0x40 MLOAD DUP1 SWAP2 SUB SWAP1 REVERT JUMPDEST PUSH1 0x2 PUSH1 0x6 DUP2 GT ISZERO PUSH2 0xE69 JUMPI PUSH2 0xE68 PUSH2 0x12E3 JUMP JUMPDEST JUMPDEST PUSH1 0x4 PUSH1 0x0 SWAP1 SLOAD SWAP1 PUSH2 0x100 EXP SWAP1 DIV PUSH1 0xFF AND PUSH1 0x6 DUP2 GT ISZERO PUSH2 0xE8B JUMPI PUSH2 0xE8A PUSH2 0x12E3 JUMP JUMPDEST JUMPDEST EQ PUSH2 0xEDC JUMPI PUSH1 0x4 PUSH1 0x0 SWAP1 SLOAD SWAP1 PUSH2 0x100 EXP SWAP1 DIV PUSH1 0xFF AND PUSH1 0x40 MLOAD PUSH32 0x973BA22600000000000000000000000000000000000000000000000000000000 DUP2 MSTORE PUSH1 0x4 ADD PUSH2 0xED3 SWAP2 SWAP1 PUSH2 0x135A JUMP JUMPDEST PUSH1 0x40 MLOAD DUP1 SWAP2 SUB SWAP1 REVERT JUMPDEST PUSH1 0x6 PUSH1 0x4 PUSH1 0x0 PUSH2 0x100 EXP DUP2 SLOAD DUP2 PUSH1 0xFF MUL NOT AND SWAP1 DUP4 PUSH1 0x6 DUP2 GT ISZERO PUSH2 0xF02 JUMPI PUSH2 0xF01 PUSH2 0x12E3 JUMP JUMPDEST JUMPDEST MUL OR SWAP1 SSTORE POP PUSH32 0x1820008467FC0CF42493C0DC4EBB74B438FF75CD0E7365E13DAE3B6A030ACA35 PUSH1 0x6 PUSH1 0x0 SWAP1 SLOAD SWAP1 PUSH2 0x100 EXP SWAP1 DIV PUSH20 0xFFFFFFFFFFFFFFFFFFFFFFFFFFFFFFFFFFFFFFFF AND DUP4 DUP4 PUSH1 0x40 MLOAD PUSH2 0xF5C SWAP4 SWAP3 SWAP2 SWAP1 PUSH2 0x17B7 JUMP JUMPDEST PUSH1 0x40 MLOAD DUP1 SWAP2 SUB SWAP1 LOG1 POP POP JUMP JUMPDEST PUSH1 0x3 DUP1 SLOAD PUSH2 0xF75 SWAP1 PUSH2 0x182B JUMP JUMPDEST DUP1 PUSH1 0x1F ADD PUSH1 0x20 DUP1 SWAP2 DIV MUL PUSH1 0x20 ADD PUSH1 0x40 MLOAD SWAP1 DUP2 ADD PUSH1 0x40 MSTORE DUP1 SWAP3 SWAP2 SWAP1 DUP2 DUP2 MSTORE PUSH1 0x20 ADD DUP3 DUP1 SLOAD PUSH2 0xFA1 SWAP1 PUSH2 0x182B JUMP JUMPDEST DUP1 ISZERO PUSH2 0xFEE JUMPI DUP1 PUSH1 0x1F LT PUSH2 0xFC3 JUMPI PUSH2 0x100 DUP1 DUP4 SLOAD DIV MUL DUP4 MSTORE SWAP2 PUSH1 0x20 ADD SWAP2 PUSH2 0xFEE JUMP JUMPDEST DUP3 ADD SWAP2 SWAP1 PUSH1 0x0 MSTORE PUSH1 0x20 PUSH1 0x0 KECCAK256 SWAP1 JUMPDEST DUP2 SLOAD DUP2 MSTORE SWAP1 PUSH1 0x1 ADD SWAP1 PUSH1 0x20 ADD DUP1 DUP4 GT PUSH2 0xFD1 JUMPI DUP3 SWAP1 SUB PUSH1 0x1F AND DUP3 ADD SWAP2 JUMPDEST POP POP POP POP POP DUP2 JUMP JUMPDEST PUSH1 0x6 PUSH1 0x0 SWAP1 SLOAD SWAP1 PUSH2 0x100 EXP SWAP1 DIV PUSH20 0xFFFFFFFFFFFFFFFFFFFFFFFFFFFFFFFFFFFFFFFF AND PUSH20 0xFFFFFFFFFFFFFFFFFFFFFFFFFFFFFFFFFFFFFFFF AND CALLER PUSH20 0xFFFFFFFFFFFFFFFFFFFFFFFFFFFFFFFFFFFFFFFF AND EQ PUSH2 0x107D JUMPI PUSH1 0x40 MLOAD PUSH32 0x8CE9AA0B00000000000000000000000000000000000000000000000000000000 DUP2 MSTORE PUSH1 0x4 ADD PUSH1 0x40 MLOAD DUP1 SWAP2 SUB SWAP1 REVERT JUMPDEST PUSH1 0x0 PUSH1 0x4 PUSH1 0x0 PUSH2 0x100 EXP DUP2 SLOAD DUP2 PUSH1 0xFF MUL NOT AND SWAP1 DUP4 PUSH1 0x6 DUP2 GT ISZERO PUSH2 0x10A3 JUMPI PUSH2 0x10A2 PUSH2 0x12E3 JUMP JUMPDEST JUMPDEST MUL OR SWAP1 SSTORE POP PUSH1 0x0 PUSH1 0x6 PUSH1 0x0 PUSH2 0x100 EXP DUP2 SLOAD DUP2 PUSH20 0xFFFFFFFFFFFFFFFFFFFFFFFFFFFFFFFFFFFFFFFF MUL NOT AND SWAP1 DUP4 PUSH20 0xFFFFFFFFFFFFFFFFFFFFFFFFFFFFFFFFFFFFFFFF AND MUL OR SWAP1 SSTORE POP PUSH1 0x0 PUSH1 0x5 PUSH1 0x0 CALLER PUSH20 0xFFFFFFFFFFFFFFFFFFFFFFFFFFFFFFFFFFFFFFFF AND PUSH20 0xFFFFFFFFFFFFFFFFFFFFFFFFFFFFFFFFFFFFFFFF AND DUP2 MSTORE PUSH1 0x20 ADD SWAP1 DUP2 MSTORE PUSH1 0x20 ADD PUSH1 0x0 KECCAK256 PUSH1 0x0 PUSH2 0x100 EXP DUP2 SLOAD DUP2 PUSH1 0xFF MUL NOT AND SWAP1 DUP4 ISZERO ISZERO MUL OR SWAP1 SSTORE POP PUSH32 0xE871EE8EA724D2A2E048EA20E2636F4EEB1E6FB9FD7D2F5CB23E9E876241F2E1 PUSH1 0x0 DUP1 SLOAD SWAP1 PUSH2 0x100 EXP SWAP1 DIV PUSH20 0xFFFFFFFFFFFFFFFFFFFFFFFFFFFFFFFFFFFFFFFF AND DUP3 PUSH1 0x40 MLOAD PUSH2 0x1193 SWAP3 SWAP2 SWAP1 PUSH2 0x185C JUMP JUMPDEST PUSH1 0x40 MLOAD DUP1 SWAP2 SUB SWAP1 LOG1 POP JUMP JUMPDEST PUSH1 0x1 SLOAD DUP2 JUMP JUMPDEST PUSH1 0x0 DUP1 SLOAD SWAP1 PUSH2 0x100 EXP SWAP1 DIV PUSH20 0xFFFFFFFFFFFFFFFFFFFFFFFFFFFFFFFFFFFFFFFF AND DUP2 JUMP JUMPDEST PUSH1 0x5 PUSH1 0x20 MSTORE DUP1 PUSH1 0x0 MSTORE PUSH1 0x40 PUSH1 0x0 KECCAK256 PUSH1 0x0 SWAP2 POP SLOAD SWAP1 PUSH2 0x100 EXP SWAP1 DIV PUSH1 0xFF AND DUP2 JUMP JUMPDEST PUSH1 0x2 DUP1 SLOAD PUSH2 0x11F5 SWAP1 PUSH2 0x182B JUMP JUMPDEST DUP1 PUSH1 0x1F ADD PUSH1 0x20 DUP1 SWAP2 DIV MUL PUSH1 0x20 ADD PUSH1 0x40 MLOAD SWAP1 DUP2 ADD PUSH1 0x40 MSTORE DUP1 SWAP3 SWAP2 SWAP1 DUP2 DUP2 MSTORE PUSH1 0x20 ADD DUP3 DUP1 SLOAD PUSH2 0x1221 SWAP1 PUSH2 0x182B JUMP JUMPDEST DUP1 ISZERO PUSH2 0x126E JUMPI DUP1 PUSH1 0x1F LT PUSH2 0x1243 JUMPI PUSH2 0x100 DUP1 DUP4 SLOAD DIV MUL DUP4 MSTORE SWAP2 PUSH1 0x20 ADD SWAP2 PUSH2 0x126E JUMP JUMPDEST DUP3 ADD SWAP2 SWAP1 PUSH1 0x0 MSTORE PUSH1 0x20 PUSH1 0x0 KECCAK256 SWAP1 JUMPDEST DUP2 SLOAD DUP2 MSTORE SWAP1 PUSH1 0x1 ADD SWAP1 PUSH1 0x20 ADD DUP1 DUP4 GT PUSH2 0x1251 JUMPI DUP3 SWAP1 SUB PUSH1 0x1F AND DUP3 ADD SWAP2 JUMPDEST POP POP POP POP POP DUP2 JUMP JUMPDEST PUSH1 0x0 DUP2 SWAP1 POP SWAP2 SWAP1 POP JUMP JUMPDEST PUSH32 0x4E487B7100000000000000000000000000000000000000000000000000000000 PUSH1 0x0 MSTORE PUSH1 0x11 PUSH1 0x4 MSTORE PUSH1 0x24 PUSH1 0x0 REVERT JUMPDEST PUSH1 0x0 PUSH2 0x12BA DUP3 PUSH2 0x1276 JUMP JUMPDEST SWAP2 POP PUSH2 0x12C5 DUP4 PUSH2 0x1276 JUMP JUMPDEST SWAP3 POP DUP3 DUP3 ADD SWAP1 POP DUP1 DUP3 GT ISZERO PUSH2 0x12DD JUMPI PUSH2 0x12DC PUSH2 0x1280 JUMP JUMPDEST JUMPDEST SWAP3 SWAP2 POP POP JUMP JUMPDEST PUSH32 0x4E487B7100000000000000000000000000000000000000000000000000000000 PUSH1 0x0 MSTORE PUSH1 0x21 PUSH1 0x4 MSTORE PUSH1 0x24 PUSH1 0x0 REVERT JUMPDEST PUSH1 0x7 DUP2 LT PUSH2 0x1323 JUMPI PUSH2 0x1322 PUSH2 0x12E3 JUMP JUMPDEST JUMPDEST POP JUMP JUMPDEST PUSH1 0x0 DUP2 SWAP1 POP PUSH2 0x1334 DUP3 PUSH2 0x1312 JUMP JUMPDEST SWAP2 SWAP1 POP JUMP JUMPDEST PUSH1 0x0 PUSH2 0x1344 DUP3 PUSH2 0x1326 JUMP JUMPDEST SWAP1 POP SWAP2 SWAP1 POP JUMP JUMPDEST PUSH2 0x1354 DUP2 PUSH2 0x1339 JUMP JUMPDEST DUP3 MSTORE POP POP JUMP JUMPDEST PUSH1 0x0 PUSH1 0x20 DUP3 ADD SWAP1 POP PUSH2 0x136F PUSH1 0x0 DUP4 ADD DUP5 PUSH2 0x134B JUMP JUMPDEST SWAP3 SWAP2 POP POP JUMP JUMPDEST PUSH1 0x0 PUSH20 0xFFFFFFFFFFFFFFFFFFFFFFFFFFFFFFFFFFFFFFFF DUP3 AND SWAP1 POP SWAP2 SWAP1 POP JUMP JUMPDEST PUSH1 0x0 PUSH2 0x13A0 DUP3 PUSH2 0x1375 JUMP JUMPDEST SWAP1 POP SWAP2 SWAP1 POP JUMP JUMPDEST PUSH2 0x13B0 DUP2 PUSH2 0x1395 JUMP JUMPDEST DUP3 MSTORE POP POP JUMP JUMPDEST PUSH1 0x0 PUSH1 0x20 DUP3 ADD SWAP1 POP PUSH2 0x13CB PUSH1 0x0 DUP4 ADD DUP5 PUSH2 0x13A7 JUMP JUMPDEST SWAP3 SWAP2 POP POP JUMP JUMPDEST PUSH1 0x0 PUSH1 0x40 MLOAD SWAP1 POP SWAP1 JUMP JUMPDEST PUSH1 0x0 DUP1 REVERT JUMPDEST PUSH1 0x0 DUP1 REVERT JUMPDEST PUSH1 0x0 PUSH2 0x13F0 DUP3 PUSH2 0x1375 JUMP JUMPDEST SWAP1 POP SWAP2 SWAP1 POP JUMP JUMPDEST PUSH2 0x1400 DUP2 PUSH2 0x13E5 JUMP JUMPDEST DUP2 EQ PUSH2 0x140B JUMPI PUSH1 0x0 DUP1 REVERT JUMPDEST POP JUMP JUMPDEST PUSH1 0x0 DUP2 CALLDATALOAD SWAP1 POP PUSH2 0x141D DUP2 PUSH2 0x13F7 JUMP JUMPDEST SWAP3 SWAP2 POP POP JUMP JUMPDEST PUSH1 0x0 PUSH1 0x20 DUP3 DUP5 SUB SLT ISZERO PUSH2 0x1439 JUMPI PUSH2 0x1438 PUSH2 0x13DB JUMP JUMPDEST JUMPDEST PUSH1 0x0 PUSH2 0x1447 DUP5 DUP3 DUP6 ADD PUSH2 0x140E JUMP JUMPDEST SWAP2 POP POP SWAP3 SWAP2 POP POP JUMP JUMPDEST PUSH1 0x0 DUP1 REVERT JUMPDEST PUSH1 0x0 DUP1 REVERT JUMPDEST PUSH1 0x0 PUSH1 0x1F NOT PUSH1 0x1F DUP4 ADD AND SWAP1 POP SWAP2 SWAP1 POP JUMP JUMPDEST PUSH32 0x4E487B7100000000000000000000000000000000000000000000000000000000 PUSH1 0x0 MSTORE PUSH1 0x41 PUSH1 0x4 MSTORE PUSH1 0x24 PUSH1 0x0 REVERT JUMPDEST PUSH2 0x14A3 DUP3 PUSH2 0x145A JUMP JUMPDEST DUP2 ADD DUP2 DUP2 LT PUSH8 0xFFFFFFFFFFFFFFFF DUP3 GT OR ISZERO PUSH2 0x14C2 JUMPI PUSH2 0x14C1 PUSH2 0x146B JUMP JUMPDEST JUMPDEST DUP1 PUSH1 0x40 MSTORE POP POP POP JUMP JUMPDEST PUSH1 0x0 PUSH2 0x14D5 PUSH2 0x13D1 JUMP JUMPDEST SWAP1 POP PUSH2 0x14E1 DUP3 DUP3 PUSH2 0x149A JUMP JUMPDEST SWAP2 SWAP1 POP JUMP JUMPDEST PUSH1 0x0 PUSH8 0xFFFFFFFFFFFFFFFF DUP3 GT ISZERO PUSH2 0x1501 JUMPI PUSH2 0x1500 PUSH2 0x146B JUMP JUMPDEST JUMPDEST PUSH2 0x150A DUP3 PUSH2 0x145A JUMP JUMPDEST SWAP1 POP PUSH1 0x20 DUP2 ADD SWAP1 POP SWAP2 SWAP1 POP JUMP JUMPDEST DUP3 DUP2 DUP4 CALLDATACOPY PUSH1 0x0 DUP4 DUP4 ADD MSTORE POP POP POP JUMP JUMPDEST PUSH1 0x0 PUSH2 0x1539 PUSH2 0x1534 DUP5 PUSH2 0x14E6 JUMP JUMPDEST PUSH2 0x14CB JUMP JUMPDEST SWAP1 POP DUP3 DUP2 MSTORE PUSH1 0x20 DUP2 ADD DUP5 DUP5 DUP5 ADD GT ISZERO PUSH2 0x1555 JUMPI PUSH2 0x1554 PUSH2 0x1455 JUMP JUMPDEST JUMPDEST PUSH2 0x1560 DUP5 DUP3 DUP6 PUSH2 0x1517 JUMP JUMPDEST POP SWAP4 SWAP3 POP POP POP JUMP JUMPDEST PUSH1 0x0 DUP3 PUSH1 0x1F DUP4 ADD SLT PUSH2 0x157D JUMPI PUSH2 0x157C PUSH2 0x1450 JUMP JUMPDEST JUMPDEST DUP2 CALLDATALOAD PUSH2 0x158D DUP5 DUP3 PUSH1 0x20 DUP7 ADD PUSH2 0x1526 JUMP JUMPDEST SWAP2 POP POP SWAP3 SWAP2 POP POP JUMP JUMPDEST PUSH1 0x0 DUP1 PUSH1 0x40 DUP4 DUP6 SUB SLT ISZERO PUSH2 0x15AD JUMPI PUSH2 0x15AC PUSH2 0x13DB JUMP JUMPDEST JUMPDEST PUSH1 0x0 DUP4 ADD CALLDATALOAD PUSH8 0xFFFFFFFFFFFFFFFF DUP2 GT ISZERO PUSH2 0x15CB JUMPI PUSH2 0x15CA PUSH2 0x13E0 JUMP JUMPDEST JUMPDEST PUSH2 0x15D7 DUP6 DUP3 DUP7 ADD PUSH2 0x1568 JUMP JUMPDEST SWAP3 POP POP PUSH1 0x20 DUP4 ADD CALLDATALOAD PUSH8 0xFFFFFFFFFFFFFFFF DUP2 GT ISZERO PUSH2 0x15F8 JUMPI PUSH2 0x15F7 PUSH2 0x13E0 JUMP JUMPDEST JUMPDEST PUSH2 0x1604 DUP6 DUP3 DUP7 ADD PUSH2 0x1568 JUMP JUMPDEST SWAP2 POP POP SWAP3 POP SWAP3 SWAP1 POP JUMP JUMPDEST PUSH1 0x0 DUP2 MLOAD SWAP1 POP SWAP2 SWAP1 POP JUMP JUMPDEST PUSH1 0x0 DUP3 DUP3 MSTORE PUSH1 0x20 DUP3 ADD SWAP1 POP SWAP3 SWAP2 POP POP JUMP JUMPDEST PUSH1 0x0 JUMPDEST DUP4 DUP2 LT ISZERO PUSH2 0x1648 JUMPI DUP1 DUP3 ADD MLOAD DUP2 DUP5 ADD MSTORE PUSH1 0x20 DUP2 ADD SWAP1 POP PUSH2 0x162D JUMP JUMPDEST PUSH1 0x0 DUP5 DUP5 ADD MSTORE POP POP POP POP JUMP JUMPDEST PUSH1 0x0 PUSH2 0x165F DUP3 PUSH2 0x160E JUMP JUMPDEST PUSH2 0x1669 DUP2 DUP6 PUSH2 0x1619 JUMP JUMPDEST SWAP4 POP PUSH2 0x1679 DUP2 DUP6 PUSH1 0x20 DUP7 ADD PUSH2 0x162A JUMP JUMPDEST PUSH2 0x1682 DUP2 PUSH2 0x145A JUMP JUMPDEST DUP5 ADD SWAP2 POP POP SWAP3 SWAP2 POP POP JUMP JUMPDEST PUSH1 0x0 PUSH1 0x20 DUP3 ADD SWAP1 POP DUP2 DUP2 SUB PUSH1 0x0 DUP4 ADD MSTORE PUSH2 0x16A7 DUP2 DUP5 PUSH2 0x1654 JUMP JUMPDEST SWAP1 POP SWAP3 SWAP2 POP POP JUMP JUMPDEST PUSH1 0x0 PUSH1 0x20 DUP3 DUP5 SUB SLT ISZERO PUSH2 0x16C5 JUMPI PUSH2 0x16C4 PUSH2 0x13DB JUMP JUMPDEST JUMPDEST PUSH1 0x0 DUP3 ADD CALLDATALOAD PUSH8 0xFFFFFFFFFFFFFFFF DUP2 GT ISZERO PUSH2 0x16E3 JUMPI PUSH2 0x16E2 PUSH2 0x13E0 JUMP JUMPDEST JUMPDEST PUSH2 0x16EF DUP5 DUP3 DUP6 ADD PUSH2 0x1568 JUMP JUMPDEST SWAP2 POP POP SWAP3 SWAP2 POP POP JUMP JUMPDEST PUSH2 0x1701 DUP2 PUSH2 0x1276 JUMP JUMPDEST DUP3 MSTORE POP POP JUMP JUMPDEST PUSH1 0x0 PUSH1 0x20 DUP3 ADD SWAP1 POP PUSH2 0x171C PUSH1 0x0 DUP4 ADD DUP5 PUSH2 0x16F8 JUMP JUMPDEST SWAP3 SWAP2 POP POP JUMP JUMPDEST PUSH1 0x0 DUP2 ISZERO ISZERO SWAP1 POP SWAP2 SWAP1 POP JUMP JUMPDEST PUSH2 0x1737 DUP2 PUSH2 0x1722 JUMP JUMPDEST DUP3 MSTORE POP POP JUMP JUMPDEST PUSH1 0x0 PUSH1 0x20 DUP3 ADD SWAP1 POP PUSH2 0x1752 PUSH1 0x0 DUP4 ADD DUP5 PUSH2 0x172E JUMP JUMPDEST SWAP3 SWAP2 POP POP JUMP JUMPDEST PUSH1 0x0 DUP2 SWAP1 POP SWAP2 SWAP1 POP JUMP JUMPDEST PUSH1 0x0 PUSH2 0x177D PUSH2 0x1778 PUSH2 0x1773 DUP5 PUSH2 0x1375 JUMP JUMPDEST PUSH2 0x1758 JUMP JUMPDEST PUSH2 0x1375 JUMP JUMPDEST SWAP1 POP SWAP2 SWAP1 POP JUMP JUMPDEST PUSH1 0x0 PUSH2 0x178F DUP3 PUSH2 0x1762 JUMP JUMPDEST SWAP1 POP SWAP2 SWAP1 POP JUMP JUMPDEST PUSH1 0x0 PUSH2 0x17A1 DUP3 PUSH2 0x1784 JUMP JUMPDEST SWAP1 POP SWAP2 SWAP1 POP JUMP JUMPDEST PUSH2 0x17B1 DUP2 PUSH2 0x1796 JUMP JUMPDEST DUP3 MSTORE POP POP JUMP JUMPDEST PUSH1 0x0 PUSH1 0x60 DUP3 ADD SWAP1 POP PUSH2 0x17CC PUSH1 0x0 DUP4 ADD DUP7 PUSH2 0x17A8 JUMP JUMPDEST DUP2 DUP2 SUB PUSH1 0x20 DUP4 ADD MSTORE PUSH2 0x17DE DUP2 DUP6 PUSH2 0x1654 JUMP JUMPDEST SWAP1 POP DUP2 DUP2 SUB PUSH1 0x40 DUP4 ADD MSTORE PUSH2 0x17F2 DUP2 DUP5 PUSH2 0x1654 JUMP JUMPDEST SWAP1 POP SWAP5 SWAP4 POP POP POP POP JUMP JUMPDEST PUSH32 0x4E487B7100000000000000000000000000000000000000000000000000000000 PUSH1 0x0 MSTORE PUSH1 0x22 PUSH1 0x4 MSTORE PUSH1 0x24 PUSH1 0x0 REVERT JUMPDEST PUSH1 0x0 PUSH1 0x2 DUP3 DIV SWAP1 POP PUSH1 0x1 DUP3 AND DUP1 PUSH2 0x1843 JUMPI PUSH1 0x7F DUP3 AND SWAP2 POP JUMPDEST PUSH1 0x20 DUP3 LT DUP2 SUB PUSH2 0x1856 JUMPI PUSH2 0x1855 PUSH2 0x17FC JUMP JUMPDEST JUMPDEST POP SWAP2 SWAP1 POP JUMP JUMPDEST PUSH1 0x0 PUSH1 0x40 DUP3 ADD SWAP1 POP PUSH2 0x1871 PUSH1 0x0 DUP4 ADD DUP6 PUSH2 0x17A8 JUMP JUMPDEST DUP2 DUP2 SUB PUSH1 0x20 DUP4 ADD MSTORE PUSH2 0x1883 DUP2 DUP5 PUSH2 0x1654 JUMP JUMPDEST SWAP1 POP SWAP4 SWAP3 POP POP POP JUMP INVALID LOG2 PUSH5 0x6970667358 0x22 SLT KECCAK256 0xEC BYTE 0xA9 MLOAD SIGNEXTEND PUSH22 0x8991BDF68467CE987D6F356E1DAFB37283BB2386544A 0xCC DUP16 0x28 ADDRESS PUSH5 0x736F6C6343 STOP ADDMOD GT STOP CALLER "},"methodIdentifiers":{"assignPerformer(address)":"4bf576cc","assignRequest()":"54bf4bc3","completeTask()":"43bb8db5","employer()":"ae200e79","rejectTask()":"4a45110b","renounceTaskWithMessage(string)":"a26616aa","requestChanges(string,string)":"58959ba1","revokeAssignRequest()":"006a2590","selected_performer()":"33f17420","sendTaskToReview()":"1ff70522","short_title()":"9b37e0c3","status()":"200d2ed2","task_cost()":"ae1ee533","task_description_link()":"f5c743f4","wishing_performers(address)":"e7793e37"}}}}}